{"abi":[{"type":"constructor","inputs":[{"name":"_bns","type":"address","internalType":"address"}],"stateMutability":"nonpayable"},{"type":"function","name":"AddBackup","inputs":[{"name":"_member","type":"address","internalType":"address"}],"outputs":[],"stateMutability":"nonpayable"},{"type":"function","name":"AddChat","inputs":[{"name":"owner","type":"address","internalType":"address"},{"name":"initial_key","type":"address","internalType":"address"}],"outputs":[],"stateMutability":"nonpayable"},{"type":"function","name":"AddJoinCode","inputs":[{"name":"_secret","type":"address","internalType":"address"},{"name":"_expiry_time","type":"uint256","internalType":"uint256"},{"name":"_expiry_count","type":"uint256","internalType":"uint256"},{"name":"_target_role","type":"uint256","internalType":"uint256"}],"outputs":[],"stateMutability":"nonpayable"},{"type":"function","name":"AddMember","inputs":[{"name":"_member","type":"address","internalType":"address"}],"outputs":[],"stateMutability":"nonpayable"},{"type":"function","name":"AddMember","inputs":[{"name":"_member","type":"address","internalType":"address"},{"name":"_role","type":"uint256","internalType":"uint256"}],"outputs":[],"stateMutability":"nonpayable"},{"type":"function","name":"AddReader","inputs":[{"name":"_member","type":"address","internalType":"address"}],"outputs":[],"stateMutability":"nonpayable"},{"type":"function","name":"AddWhitelist","inputs":[{"name":"_member","type":"address","internalType":"address"}],"outputs":[],"stateMutability":"nonpayable"},{"type":"function","name":"Chat","inputs":[{"name":"initial_key","type":"address","internalType":"address"}],"outputs":[{"name":"","type":"address","internalType":"address"}],"stateMutability":"view"},{"type":"function","name":"ChatPolicy","inputs":[],"outputs":[{"name":"","type":"uint256","internalType":"uint256"}],"stateMutability":"view"},{"type":"function","name":"Chats","inputs":[],"outputs":[{"name":"","type":"address[]","internalType":"address[]"}],"stateMutability":"view"},{"type":"function","name":"ChatsInfoAggregateV1","inputs":[{"name":"_chats","type":"address[]","internalType":"address[]"},{"name":"max_size","type":"uint256","internalType":"uint256"}],"outputs":[{"name":"","type":"tuple[]","internalType":"struct ChatGroup.Info[]","components":[{"name":"chat","type":"address","internalType":"address"},{"name":"owner","type":"address","internalType":"address"},{"name":"members","type":"tuple[]","internalType":"struct RoleGroup.MemberInfo[]","components":[{"name":"member","type":"address","internalType":"address"},{"name":"role","type":"uint256","internalType":"uint256"}]},{"name":"member_count","type":"uint256","internalType":"uint256"},{"name":"last_update","type":"uint256","internalType":"uint256"},{"name":"keys","type":"address[]","internalType":"address[]"},{"name":"label_proof","type":"bytes32","internalType":"bytes32"},{"name":"description_proof","type":"bytes32","internalType":"bytes32"}]}],"stateMutability":"nonpayable"},{"type":"function","name":"ChatsPage","inputs":[{"name":"page","type":"uint256","internalType":"uint256"},{"name":"pageSize","type":"uint256","internalType":"uint256"}],"outputs":[{"name":"","type":"address[]","internalType":"address[]"}],"stateMutability":"view"},{"type":"function","name":"DataValue","inputs":[{"name":"_class","type":"uint256","internalType":"uint256"},{"name":"_key","type":"uint256","internalType":"uint256"}],"outputs":[{"name":"","type":"uint256","internalType":"uint256"}],"stateMutability":"view"},{"type":"function","name":"DataValues","inputs":[{"name":"_keys","type":"tuple[]","internalType":"struct Group.DataKey[]","components":[{"name":"class","type":"uint256","internalType":"uint256"},{"name":"key","type":"uint256","internalType":"uint256"}]}],"outputs":[{"name":"","type":"uint256[]","internalType":"uint256[]"}],"stateMutability":"view"},{"type":"function","name":"IsMember","inputs":[],"outputs":[{"name":"","type":"bool","internalType":"bool"}],"stateMutability":"view"},{"type":"function","name":"IsMember","inputs":[{"name":"_member","type":"address","internalType":"address"}],"outputs":[{"name":"","type":"bool","internalType":"bool"}],"stateMutability":"view"},{"type":"function","name":"IsSubZone","inputs":[],"outputs":[{"name":"","type":"uint256","internalType":"uint256"}],"stateMutability":"view"},{"type":"function","name":"Join","inputs":[{"name":"_secret","type":"address","internalType":"address"},{"name":"v","type":"uint8","internalType":"uint8"},{"name":"r","type":"bytes32","internalType":"bytes32"},{"name":"s","type":"bytes32","internalType":"bytes32"}],"outputs":[],"stateMutability":"nonpayable"},{"type":"function","name":"Join","inputs":[{"name":"v","type":"uint8","internalType":"uint8"},{"name":"r","type":"bytes32","internalType":"bytes32"},{"name":"s","type":"bytes32","internalType":"bytes32"}],"outputs":[],"stateMutability":"nonpayable"},{"type":"function","name":"JoinCode","inputs":[{"name":"_secret","type":"address","internalType":"address"}],"outputs":[{"name":"","type":"tuple","internalType":"struct Drive.JoinCodeInfo","components":[{"name":"secret","type":"address","internalType":"address"},{"name":"nonce","type":"uint256","internalType":"uint256"},{"name":"expiry_time","type":"uint256","internalType":"uint256"},{"name":"expiry_count","type":"uint256","internalType":"uint256"},{"name":"target_role","type":"uint256","internalType":"uint256"}]}],"stateMutability":"view"},{"type":"function","name":"JoinCodes","inputs":[],"outputs":[{"name":"","type":"address[]","internalType":"address[]"}],"stateMutability":"view"},{"type":"function","name":"JoinCodesInfo","inputs":[{"name":"_secrets","type":"address[]","internalType":"address[]"}],"outputs":[{"name":"","type":"tuple[]","internalType":"struct Drive.JoinCodeInfo[]","components":[{"name":"secret","type":"address","internalType":"address"},{"name":"nonce","type":"uint256","internalType":"uint256"},{"name":"expiry_time","type":"uint256","internalType":"uint256"},{"name":"expiry_count","type":"uint256","internalType":"uint256"},{"name":"target_role","type":"uint256","internalType":"uint256"}]}],"stateMutability":"view"},{"type":"function","name":"JoinCodesPage","inputs":[{"name":"page","type":"uint256","internalType":"uint256"},{"name":"pageSize","type":"uint256","internalType":"uint256"}],"outputs":[{"name":"","type":"address[]","internalType":"address[]"}],"stateMutability":"view"},{"type":"function","name":"MemberCount","inputs":[],"outputs":[{"name":"","type":"uint256","internalType":"uint256"}],"stateMutability":"view"},{"type":"function","name":"MemberRoles","inputs":[{"name":"_members","type":"address[]","internalType":"address[]"}],"outputs":[{"name":"","type":"tuple[]","internalType":"struct RoleGroup.MemberInfo[]","components":[{"name":"member","type":"address","internalType":"address"},{"name":"role","type":"uint256","internalType":"uint256"}]}],"stateMutability":"nonpayable"},{"type":"function","name":"MemberRoles","inputs":[],"outputs":[{"name":"","type":"tuple[]","internalType":"struct RoleGroup.MemberInfo[]","components":[{"name":"member","type":"address","internalType":"address"},{"name":"role","type":"uint256","internalType":"uint256"}]}],"stateMutability":"nonpayable"},{"type":"function","name":"MemberValue","inputs":[{"name":"_member","type":"address","internalType":"address"},{"name":"_key","type":"uint256","internalType":"uint256"}],"outputs":[{"name":"","type":"uint256","internalType":"uint256"}],"stateMutability":"view"},{"type":"function","name":"MemberWithRole","inputs":[{"name":"_role","type":"uint256","internalType":"uint256"}],"outputs":[{"name":"","type":"tuple[]","internalType":"struct RoleGroup.MemberInfo[]","components":[{"name":"member","type":"address","internalType":"address"},{"name":"role","type":"uint256","internalType":"uint256"}]}],"stateMutability":"nonpayable"},{"type":"function","name":"Members","inputs":[],"outputs":[{"name":"","type":"address[]","internalType":"address[]"}],"stateMutability":"nonpayable"},{"type":"function","name":"Members","inputs":[{"name":"page","type":"uint256","internalType":"uint256"},{"name":"pageSize","type":"uint256","internalType":"uint256"}],"outputs":[{"name":"","type":"address[]","internalType":"address[]"}],"stateMutability":"nonpayable"},{"type":"function","name":"MembersExtended","inputs":[],"outputs":[{"name":"","type":"tuple[]","internalType":"struct RoleGroup.MemberInfoExtended[]","components":[{"name":"member","type":"address","internalType":"address"},{"name":"role","type":"uint256","internalType":"uint256"},{"name":"devices","type":"address[]","internalType":"address[]"}]}],"stateMutability":"nonpayable"},{"type":"function","name":"MembersExtended","inputs":[{"name":"_members","type":"address[]","internalType":"address[]"}],"outputs":[{"name":"","type":"tuple[]","internalType":"struct RoleGroup.MemberInfoExtended[]","components":[{"name":"member","type":"address","internalType":"address"},{"name":"role","type":"uint256","internalType":"uint256"},{"name":"devices","type":"address[]","internalType":"address[]"}]}],"stateMutability":"nonpayable"},{"type":"function","name":"Migrate","inputs":[],"outputs":[],"stateMutability":"nonpayable"},{"type":"function","name":"Name","inputs":[],"outputs":[{"name":"","type":"string","internalType":"string"}],"stateMutability":"nonpayable"},{"type":"function","name":"Nonce","inputs":[],"outputs":[{"name":"","type":"uint256","internalType":"uint256"}],"stateMutability":"view"},{"type":"function","name":"OwnerValue","inputs":[{"name":"_key","type":"uint256","internalType":"uint256"}],"outputs":[{"name":"","type":"uint256","internalType":"uint256"}],"stateMutability":"view"},{"type":"function","name":"Password","inputs":[],"outputs":[{"name":"","type":"address","internalType":"address"}],"stateMutability":"view"},{"type":"function","name":"RemoveChat","inputs":[{"name":"chat","type":"address","internalType":"address"}],"outputs":[],"stateMutability":"nonpayable"},{"type":"function","name":"RemoveMember","inputs":[{"name":"_member","type":"address","internalType":"address"}],"outputs":[],"stateMutability":"nonpayable"},{"type":"function","name":"RemoveSelf","inputs":[],"outputs":[],"stateMutability":"nonpayable"},{"type":"function","name":"RemoveWhitelist","inputs":[{"name":"_member","type":"address","internalType":"address"}],"outputs":[],"stateMutability":"nonpayable"},{"type":"function","name":"Role","inputs":[{"name":"_member","type":"address","internalType":"address"}],"outputs":[{"name":"","type":"uint256","internalType":"uint256"}],"stateMutability":"view"},{"type":"function","name":"RoleValue","inputs":[{"name":"_role","type":"uint256","internalType":"uint256"},{"name":"_key","type":"uint256","internalType":"uint256"}],"outputs":[{"name":"","type":"uint256","internalType":"uint256"}],"stateMutability":"view"},{"type":"function","name":"RoleValues","inputs":[{"name":"_keys","type":"tuple[]","internalType":"struct Group.DataKey[]","components":[{"name":"class","type":"uint256","internalType":"uint256"},{"name":"key","type":"uint256","internalType":"uint256"}]}],"outputs":[{"name":"","type":"uint256[]","internalType":"uint256[]"}],"stateMutability":"view"},{"type":"function","name":"SetMemberValue","inputs":[{"name":"key","type":"uint256","internalType":"uint256"},{"name":"value","type":"uint256","internalType":"uint256"}],"outputs":[],"stateMutability":"nonpayable"},{"type":"function","name":"SetOwnerValue","inputs":[{"name":"key","type":"uint256","internalType":"uint256"},{"name":"value","type":"uint256","internalType":"uint256"}],"outputs":[],"stateMutability":"nonpayable"},{"type":"function","name":"SetPasswordPublic","inputs":[{"name":"_password","type":"address","internalType":"address"}],"outputs":[],"stateMutability":"nonpayable"},{"type":"function","name":"SetRoleValue","inputs":[{"name":"_role","type":"uint256","internalType":"uint256"},{"name":"_key","type":"uint256","internalType":"uint256"},{"name":"_value","type":"uint256","internalType":"uint256"}],"outputs":[],"stateMutability":"nonpayable"},{"type":"function","name":"StatusAggregateV1","inputs":[{"name":"limits","type":"uint256","internalType":"uint256"}],"outputs":[{"name":"","type":"tuple","internalType":"struct Drive.StatusAggregateV1Struct","components":[{"name":"members","type":"tuple[]","internalType":"struct RoleGroup.MemberInfoExtended[]","components":[{"name":"member","type":"address","internalType":"address"},{"name":"role","type":"uint256","internalType":"uint256"},{"name":"devices","type":"address[]","internalType":"address[]"}]},{"name":"member_count","type":"uint256","internalType":"uint256"},{"name":"chats","type":"tuple[]","internalType":"struct ChatGroup.Info[]","components":[{"name":"chat","type":"address","internalType":"address"},{"name":"owner","type":"address","internalType":"address"},{"name":"members","type":"tuple[]","internalType":"struct RoleGroup.MemberInfo[]","components":[{"name":"member","type":"address","internalType":"address"},{"name":"role","type":"uint256","internalType":"uint256"}]},{"name":"member_count","type":"uint256","internalType":"uint256"},{"name":"last_update","type":"uint256","internalType":"uint256"},{"name":"keys","type":"address[]","internalType":"address[]"},{"name":"label_proof","type":"bytes32","internalType":"bytes32"},{"name":"description_proof","type":"bytes32","internalType":"bytes32"}]},{"name":"chat_count","type":"uint256","internalType":"uint256"},{"name":"join_codes","type":"tuple[]","internalType":"struct Drive.JoinCodeInfo[]","components":[{"name":"secret","type":"address","internalType":"address"},{"name":"nonce","type":"uint256","internalType":"uint256"},{"name":"expiry_time","type":"uint256","internalType":"uint256"},{"name":"expiry_count","type":"uint256","internalType":"uint256"},{"name":"target_role","type":"uint256","internalType":"uint256"}]},{"name":"join_code_count","type":"uint256","internalType":"uint256"},{"name":"name","type":"string","internalType":"string"},{"name":"version","type":"int256","internalType":"int256"},{"name":"owner","type":"address","internalType":"address"},{"name":"last_update","type":"uint256","internalType":"uint256"},{"name":"zone_availability_canister","type":"uint256","internalType":"uint256"},{"name":"is_sub_zone","type":"uint256","internalType":"uint256"},{"name":"chat_policy","type":"uint256","internalType":"uint256"}]}],"stateMutability":"nonpayable"},{"type":"function","name":"Swap","inputs":[{"name":"_multisig","type":"address","internalType":"address payable"}],"outputs":[],"stateMutability":"nonpayable"},{"type":"function","name":"Type","inputs":[],"outputs":[{"name":"","type":"string","internalType":"string"}],"stateMutability":"pure"},{"type":"function","name":"UpdateJoinCode","inputs":[{"name":"_secret","type":"address","internalType":"address"},{"name":"_expiry_time","type":"uint256","internalType":"uint256"},{"name":"_expiry_count","type":"uint256","internalType":"uint256"},{"name":"_target_role","type":"uint256","internalType":"uint256"}],"outputs":[],"stateMutability":"nonpayable"},{"type":"function","name":"Version","inputs":[],"outputs":[{"name":"","type":"int256","internalType":"int256"}],"stateMutability":"pure"},{"type":"function","name":"Whitelist","inputs":[],"outputs":[{"name":"","type":"address[]","internalType":"address[]"}],"stateMutability":"view"},{"type":"function","name":"ZoneAvailabilityCanister","inputs":[],"outputs":[{"name":"","type":"uint256","internalType":"uint256"}],"stateMutability":"view"},{"type":"function","name":"bns","inputs":[],"outputs":[{"name":"","type":"address","internalType":"contract IBNS"}],"stateMutability":"view"},{"type":"function","name":"change_tracker","inputs":[],"outputs":[{"name":"","type":"uint256","internalType":"uint256"}],"stateMutability":"view"},{"type":"function","name":"initialize","inputs":[{"name":"arg_owner","type":"address","internalType":"address payable"}],"outputs":[],"stateMutability":"nonpayable"},{"type":"function","name":"owner","inputs":[],"outputs":[{"name":"","type":"address","internalType":"address payable"}],"stateMutability":"view"},{"type":"function","name":"renounceOwnership","inputs":[],"outputs":[],"stateMutability":"nonpayable"},{"type":"function","name":"resolve","inputs":[{"name":"ref","type":"bytes32","internalType":"bytes32"}],"outputs":[{"name":"","type":"address","internalType":"address"}],"stateMutability":"view"},{"type":"function","name":"transferOwnership","inputs":[{"name":"newOwner","type":"address","internalType":"address payable"}],"outputs":[],"stateMutability":"nonpayable"},{"type":"event","name":"OwnershipTransferred","inputs":[{"name":"previousOwner","type":"address","indexed":true,"internalType":"address"},{"name":"newOwner","type":"address","indexed":true,"internalType":"address"}],"anonymous":false}],"bytecode":{"object":"0x60c0604052604051620000129062000383565b604051809103906000f0801580156200002f573d6000803e3d6000fd5b5060601b6001600160601b0319166080523480156200004d57600080fd5b5060405162007c5d38038062007c5d833981016040819052620000709162000391565b6200007b3362000091565b60601b6001600160601b03191660a052620003c1565b600054610100900460ff1680620000ad5750620000ad62000180565b80620000bc575060005460ff16155b620000f95760405162461bcd60e51b815260040180806020018281038252602e81526020018062007c2f602e913960400191505060405180910390fd5b600054610100900460ff1615801562000125576000805460ff1961ff0019909116610100171660011790555b6200012f62000186565b6200014582620001ab60201b62001d981760201c565b62000169620001536200029e565b6034620002ad60201b62001e8b1790919060201c565b80156200017c576000805461ff00191690555b5050565b303b1590565b437f1e4717b2dc5dfd7f487f2043bfe9999372d693bf4d9c51b5b84f1377939cd48755565b600054610100900460ff1680620001c75750620001c762000180565b80620001d6575060005460ff16155b620002135760405162461bcd60e51b815260040180806020018281038252602e81526020018062007c2f602e913960400191505060405180910390fd5b600054610100900460ff161580156200023f576000805460ff1961ff0019909116610100171660011790555b603380546001600160a01b0319166001600160a01b0384169081179091556040516000907f8be0079c531659141344cd1fd0a4f28419497f9722a3daafe3b4186f6b6457e0908290a380156200017c576000805461ff00191690555050565b6033546001600160a01b031690565b620002b982826200030b565b15620002c5576200017c565b6001828101805491820181556000818152602080822090930180546001600160a01b0319166001600160a01b039590951694851790559054928152929052604090912055565b6001600160a01b038116600090815260208390526040812054801580620003355750600184015481115b15620003465760009150506200037d565b826001600160a01b03168460010160018303815481106200036357fe5b6000918252602090912001546001600160a01b0316149150505b92915050565b612f398062004cf683390190565b600060208284031215620003a3578081fd5b81516001600160a01b0381168114620003ba578182fd5b9392505050565b60805160601c60a05160601c61490b620003eb60003980610aa6525080611154525061490b6000f3fe60806040523480156200001157600080fd5b5060043610620004185760003560e01c80639224deae1162000225578063d4322d7d1162000135578063ef28f01511620000bd578063f8e083891162000087578063f8e08389146200091b578063ff0bcdfe1462000925578063ff322632146200092f578063ff76204414620009465762000418565b8063ef28f01514620008bf578063f2fde38b14620008d6578063f359978814620008ed578063f3b7cb1514620009045762000418565b8063e463fa6b11620000ff578063e463fa6b1462000861578063e83037d81462000878578063ec67db1f146200088f578063eee63a5814620008995762000418565b8063d4322d7d1462000812578063d8700ef51462000829578063df899ff91462000833578063e3ccbfbd146200084a5762000418565b8063aa34cd5d11620001b9578063c02475ff1162000183578063c02475ff14620007c1578063c4d66de814620007cb578063c86bc06314620007e2578063cd93da4d14620008085762000418565b8063aa34cd5d1462000763578063b67677b81462000789578063b67e215514620007a0578063bb62860d14620007b75762000418565b80639ebf6d9211620001fb5780639ebf6d921462000714578063a05f1f2c146200071e578063a6667e181462000735578063a816b4aa146200074c5762000418565b80639224deae14620006cd5780639ce8aad714620006f35780639db8f68f14620006fd5762000418565b8063534fc35f116200032d578063715018a611620002b55780638052474d116200027f5780638052474d146200067c578063852352ae14620006955780638c79ca5d14620006ac5780638da5cb5b14620006c35762000418565b8063715018a6146200063a5780637225c6dc14620006445780637693a3e9146200065b578063782dafd214620006725762000418565b80635dfb075d11620002f75780635dfb075d14620005dc5780636405475a14620005f35780636b2a2d95146200060a5780636bb04b8614620006215762000418565b8063534fc35f1462000580578063539ca83f14620005975780635b8161a414620005ae5780635c23bdf514620005c55762000418565b8063207aba2411620003b1578063387b64bf116200037b578063387b64bf146200053157806339fded47146200054857806341d41686146200055f5780634ed6472a14620005695762000418565b8063207aba2414620004c4578063264560d614620004ce57806336aa88fb14620004e55780633731a9e2146200050b5762000418565b8063176891e411620003f3578063176891e414620004715780631867e2f5146200048a578063189ac69114620004a35780631a2323d914620004ad5762000418565b80630a6b8023146200041d5780630ca4c2c1146200043f578063106f6dfc1462000458575b600080fd5b6200042762000950565b60405162000436919062003f84565b60405180910390f35b620004566200045036600462003884565b6200096d565b005b6200046262000a7e565b60405162000436919062003fe8565b6200047b62000a8d565b6040516200043691906200402a565b6200049462000aa4565b60405162000436919062003f0e565b6200045662000ac8565b62000456620004be3660046200379e565b62000ad5565b6200045662000af1565b62000462620004df3660046200379e565b62000b12565b620004fc620004f636600462003986565b62000b32565b60405162000436919062003fae565b620005226200051c36600462003a7a565b62000b4a565b6040516200043691906200453d565b6200045662000542366004620037dc565b62000c78565b62000456620005593660046200379e565b62000dcd565b6200047b62000ec5565b6200047b6200057a36600462003819565b62000f00565b6200047b6200059136600462003b99565b62000f22565b62000456620005a83660046200379e565b62000f3b565b6200047b620005bf36600462003b99565b62001102565b62000494620005d636600462003a7a565b6200111b565b620004fc620005ed36600462003986565b62001181565b620004566200060436600462003be7565b62001199565b620004566200061b36600462003b99565b620011ce565b6200062b620011ea565b60405162000436919062003f45565b6200045662001201565b6200047b6200065536600462003a7a565b620012a7565b620004566200066c3660046200379e565b620012bf565b6200062b620012d5565b620006866200134e565b60405162000436919062004033565b6200062b620006a636600462003b99565b62001446565b62000456620006bd36600462003819565b62001461565b62000494620014f4565b620006e4620006de366004620038cc565b62001503565b60405162000436919062003f99565b620006e46200151b565b620004566200070e3660046200379e565b62001532565b6200062b620015b8565b620004566200072f36600462003847565b620015d1565b62000456620007463660046200379e565b620016dd565b620004566200075d3660046200379e565b620016f5565b6200077a620007743660046200379e565b6200170d565b6040516200043691906200452d565b6200062b6200079a36600462003b99565b620017c6565b6200062b620007b136600462003b99565b620017e1565b6200047b620017fa565b6200047b620017ff565b62000456620007dc3660046200379e565b62001824565b620007f9620007f336600462003940565b620018fa565b60405162000436919062003f5a565b6200047b62001914565b6200047b620008233660046200379e565b6200194f565b6200047b62001967565b620004566200084436600462003bbb565b620019a2565b620004566200085b3660046200379e565b620019dc565b62000456620008723660046200379e565b620019f4565b620006e46200088936600462003a7a565b62001a0c565b6200062b62001a24565b620008b0620008aa366004620038cc565b62001a3d565b60405162000436919062003f6f565b62000456620008d036600462003847565b62001b6a565b62000456620008e73660046200379e565b62001c51565b62000456620008fe36600462003b99565b62001cdd565b62000494620009153660046200379e565b62001d20565b6200047b62001d4c565b6200049462001d52565b6200042762000940366004620038cc565b62001d61565b6200068662001d79565b60606200095d3362001ee9565b6200096762001eef565b90505b90565b6200097a603e8562002074565b620009a25760405162461bcd60e51b8152600401620009999062004074565b60405180910390fd5b6001600160a01b038416600090815260406020819052902060028101544210620009e05760405162461bcd60e51b8152600401620009999062004195565b600081600301541162000a075760405162461bcd60e51b815260040162000999906200432c565b600081600401541162000a2e5760405162461bcd60e51b8152600401620009999062004238565b8054600182015462000a4d916001600160a01b031690868686620020ea565b600180820180549091019055600381018054600019019055600481015462000a77903390620021e3565b5050505050565b60006200096760343362002074565b600062000a9a3362001ee9565b62000967620021f9565b7f000000000000000000000000000000000000000000000000000000000000000090565b62000ad33362002240565b565b62000ae03362002255565b62000aee8161012c620021e3565b50565b62000b0862000aff620014f4565b6101f4620021e3565b62000ad362002284565b600062000b1f3362001ee9565b62000b2a82620022a9565b90505b919050565b606062000b3f3362001ee9565b62000b2a82620022dd565b62000b54620033e1565b62000b5f3362001ee9565b600062000b6e600084620017e1565b9050600062000b80603b828662002391565b9050600062000b92603e828762002391565b90506000604051806101a0016040528062000bad8662001d61565b815260200162000bbe6034620024a1565b815260200162000bd0858933620024a8565b815260200162000be1603b620024a1565b815260200162000bf18462001a3d565b815260200162000c02603e620024a1565b815260200162000c116200134e565b8152602001609f815260200162000c27620014f4565b6001600160a01b0316815260200162000c3f620017ff565b815260200162000c4e62001914565b815260200162000c5d62001967565b815260200162000c6c62000ec5565b90529695505050505050565b62000c833362002675565b6001600160a01b038181166000908152603d6020526040902054161562000cbe5760405162461bcd60e51b81526004016200099990620043a9565b6000307fe9fcfbd8fdb933643c0f23bbf86d21400b03e909819c2c2fabdd37120c988d7960405162000cf09062003452565b62000cfd92919062004011565b604051809103906000f08015801562000d1a573d6000803e3d6000fd5b50905062000d2a603b8262001e8b565b60405163c0c53b8b60e01b81526001600160a01b0382169063c0c53b8b9062000d5c9086903090879060040162003f22565b600060405180830381600087803b15801562000d7757600080fd5b505af115801562000d8c573d6000803e3d6000fd5b505050506001600160a01b038281166000908152603d6020526040902080546001600160a01b03191691831691909117905562000dc862002284565b505050565b803b3363ffffffff821662000df65760405162461bcd60e51b81526004016200099990620042e2565b803b915063ffffffff82161562000e215760405162461bcd60e51b81526004016200099990620040ab565b62000e2c3362000b12565b62000e4b5760405162461bcd60e51b815260040162000999906200429e565b600062000e58336200269f565b90503362000e65620014f4565b6001600160a01b0316141562000e8a5762000e808462001c51565b506101f462000ea8565b600062000e97856200269f565b90508181111562000ea6578091505b505b62000eb33362002240565b62000ebf8482620021e3565b50505050565b600062000ed23362001ee9565b620009676101f47f49e57aa992e5de22b558be0b543e407c5904932d266a879f59862be2b101d54f620026eb565b600062000f0d3362001ee9565b62000f19838362002749565b90505b92915050565b600062000f2f3362001ee9565b62000f198383620026eb565b62000f463362002675565b62000f53603b8262002074565b62000f725760405162461bcd60e51b8152600401620009999062004168565b61019062000f80336200269f565b10158062001012575060405163d4322d7d60e01b81526101f4906001600160a01b0383169063d4322d7d9062000fbb90339060040162003f0e565b60206040518083038186803b15801562000fd457600080fd5b505afa15801562000fe9573d6000803e3d6000fd5b505050506040513d601f19601f820116820180604052508101906200100f919062003b80565b10155b620010315760405162461bcd60e51b81526004016200099990620044f6565b6000603d6000836001600160a01b03166395348bf460006040518263ffffffff1660e01b81526004016200106691906200402a565b60206040518083038186803b1580156200107f57600080fd5b505afa15801562001094573d6000803e3d6000fd5b505050506040513d601f19601f82011682018060405250810190620010ba9190620037bd565b6001600160a01b039081168252602082019290925260400160002080546001600160a01b03191692909116919091179055620010f8603b8262002760565b62000aee62002284565b60006200110f3362001ee9565b62000f19838362002860565b6000620011283362001ee9565b7fe9fcfbd8fdb933643c0f23bbf86d21400b03e909819c2c2fabdd37120c988d798214156200117957507f000000000000000000000000000000000000000000000000000000000000000062000b2d565b506000919050565b60606200118e3362001ee9565b62000b2a826200286e565b603754603854620011b7916001600160a01b031690858585620020ea565b60388054600101905562000dc83361012c620021e3565b620011d93362002675565b620011e633838362002922565b5050565b6060620011f73362001ee9565b6200096762002989565b6200120b620029a0565b6033546001600160a01b039081169116146200125d576040805162461bcd60e51b8152602060048201819052602482015260008051602062004864833981519152604482015290519081900360640190fd5b6033546040516000916001600160a01b0316907f8be0079c531659141344cd1fd0a4f28419497f9722a3daafe3b4186f6b6457e0908390a3603380546001600160a01b0319169055565b6000620012b43362001ee9565b62000b2a82620029a4565b620012ca3362002255565b62000aee8162002240565b6060620012e23362001ee9565b620012ee603b620029b4565b8054806020026020016040519081016040528092919081815260200182805480156200134457602002820191906000526020600020905b81546001600160a01b0316815260019091019060200180831162001325575b5050505050905090565b60606200135b3362001ee9565b60395460026000196101006001841615020190911604620013bb576200138130620029ba565b60405160200162001393919062003ed0565b60405160208183030381529060405260399080519060200190620013b992919062003460565b505b6039805460408051602060026001851615610100026000190190941693909304601f81018490048402820184019092528181529291830182828015620013445780601f10620014195761010080835404028352916020019162001344565b820191906000526020600020905b8154815290600101906020018083116200142757509395945050505050565b6060620014533362001ee9565b62000f19603b848462002391565b60c8811480620014715750606481145b806200147e575061012c81145b15620014b95761019062001492336200269f565b1015620014b35760405162461bcd60e51b81526004016200099990620040ed565b620014e8565b6101f4620014c7336200269f565b1015620014e85760405162461bcd60e51b8152600401620009999062004479565b620011e68282620021e3565b6033546001600160a01b031690565b6060620015103362001ee9565b62000b2a8262002a6e565b6060620015283362001ee9565b6200096762002b3b565b6200153c620029a0565b6033546001600160a01b039081169116146200158e576040805162461bcd60e51b8152602060048201819052602482015260008051602062004864833981519152604482015290519081900360640190fd5b603780546001600160a01b0319166001600160a01b038316179055600060385562000aee62002284565b6060620015c53362001ee9565b620012ee6041620029b4565b6000620015de336200269f565b9050610190811015620016055760405162461bcd60e51b8152600401620009999062004131565b808210620016275760405162461bcd60e51b81526004016200099990620044b0565b62001634603e8662002074565b15620016545760405162461bcd60e51b81526004016200099990620043d6565b62001661603e8662001e8b565b6040805160a0810182526001600160a01b03878116808352600060208085018281528587018b8152606087018b8152608088018b81529585529288905296909220945185546001600160a01b031916941693909317845551600184015592516002830155516003820155905160049091015562000a7762002284565b620016e83362002255565b62000aee60418262002760565b620017003362002255565b62000aee816064620021e3565b62001717620034f5565b6037546001600160a01b03838116911614156200176d57506040805160a0810182526037546001600160a01b0316815260385460208201526000918101829052606081019190915261012c608082015262000b2d565b506001600160a01b0380821660009081526040602081815291819020815160a081018352815490941684526001810154928401929092526002820154908301526003810154606083015260040154608082015262000b2d565b6060620017d33362001ee9565b62000f19603e848462002391565b6060620017ee3362001ee9565b62000f19838362002c87565b609f90565b7f1e4717b2dc5dfd7f487f2043bfe9999372d693bf4d9c51b5b84f1377939cd4875490565b600054610100900460ff16806200184057506200184062002ca5565b806200184f575060005460ff16155b6200188c5760405162461bcd60e51b815260040180806020018281038252602e81526020018062004884602e913960400191505060405180910390fd5b600054610100900460ff16158015620018b8576000805460ff1961ff0019909116610100171660011790555b620018c262002284565b620018cd8262001d98565b620018e4620018db620014f4565b60349062001e8b565b8015620011e6576000805461ff00191690555050565b6060620019073362001ee9565b62000f19838333620024a8565b6000620019213362001ee9565b620009676101f47f4f5b877fc6f89e4eb4a78282b3e325dae98e3ff97e431f92ea166ec4cde34362620026eb565b60006200195c3362001ee9565b62000b2a826200269f565b6000620019743362001ee9565b620009676101f47f51d48f6e8985f585e881800bfe8a3856fc04f972ebedf01b34cf2df03ab26523620026eb565b82620019ae336200269f565b1015620019cf5760405162461bcd60e51b8152600401620009999062004267565b62000dc883838362002922565b620019e73362002255565b62000aee8160c8620021e3565b620019ff3362002255565b62000aee60418262001e8b565b606062001a193362001ee9565b62000b2a8262002cab565b606062001a313362001ee9565b620012ee603e620029b4565b6060600082516001600160401b038111801562001a5957600080fd5b5060405190808252806020026020018201604052801562001a9757816020015b62001a83620034f5565b81526020019060019003908162001a795790505b50905060005b835181101562001b63576040600085838151811062001ab857fe5b60200260200101516001600160a01b03166001600160a01b031681526020019081526020016000206040518060a00160405290816000820160009054906101000a90046001600160a01b03166001600160a01b03166001600160a01b0316815260200160018201548152602001600282015481526020016003820154815260200160048201548152505082828151811062001b4f57fe5b602090810291909101015260010162001a9d565b5092915050565b600062001b77336200269f565b905061019081101562001b9e5760405162461bcd60e51b8152600401620009999062004131565b80821062001bc05760405162461bcd60e51b8152600401620009999062004363565b62001bcd603e8662002074565b62001bec5760405162461bcd60e51b8152600401620009999062004074565b6001600160a01b03851660009081526040602081905290206004810154821162001c2a5760405162461bcd60e51b81526004016200099990620041c5565b60028101859055600381018490556004810183905562001c4962002284565b505050505050565b62001c5b620029a0565b6033546001600160a01b0390811691161462001cad576040805162461bcd60e51b8152602060048201819052602482015260008051602062004864833981519152604482015290519081900360640190fd5b62001cc462001cbb620014f4565b610190620021e3565b62001ccf8162002e22565b62000aee62000aff620014f4565b3362001ce8620014f4565b6001600160a01b03161462001d115760405162461bcd60e51b815260040162000999906200440d565b620011e66101f4838362002922565b600062001d2d3362001ee9565b506001600160a01b039081166000908152603d60205260409020541690565b60385490565b6037546001600160a01b031690565b606062001d6e3362001ee9565b62000b2a8262002e89565b604080518082019091526005815264447269766560d81b602082015290565b600054610100900460ff168062001db4575062001db462002ca5565b8062001dc3575060005460ff16155b62001e005760405162461bcd60e51b815260040180806020018281038252602e81526020018062004884602e913960400191505060405180910390fd5b600054610100900460ff1615801562001e2c576000805460ff1961ff0019909116610100171660011790555b603380546001600160a01b0319166001600160a01b0384169081179091556040516000907f8be0079c531659141344cd1fd0a4f28419497f9722a3daafe3b4186f6b6457e0908290a38015620011e6576000805461ff00191690555050565b62001e97828262002074565b1562001ea357620011e6565b6001828101805491820181556000818152602080822090930180546001600160a01b0319166001600160a01b039590951694851790559054928152929052604090912055565b62000aee565b60606000306001600160a01b0316636bb04b866040518163ffffffff1660e01b8152600401600060405180830381600087803b15801562001f2f57600080fd5b505af115801562001f44573d6000803e3d6000fd5b505050506040513d6000823e601f3d908101601f1916820160405262001f6e91908101906200390a565b9050600081516001600160401b038111801562001f8a57600080fd5b5060405190808252806020026020018201604052801562001fc857816020015b62001fb46200352d565b81526020019060019003908162001faa5790505b50905060005b82518110156200206d57604051806060016040528084838151811062001ff057fe5b60200260200101516001600160a01b03168152602001620020258584815181106200201757fe5b60200260200101516200269f565b8152602001620020498584815181106200203b57fe5b602002602001015162002f6c565b8152508282815181106200205957fe5b602090810291909101015260010162001fce565b5091505090565b6001600160a01b0381166000908152602083905260408120548015806200209e5750600184015481115b15620020af57600091505062000f1c565b826001600160a01b0316846001016001830381548110620020cc57fe5b6000918252602090912001546001600160a01b031614949350505050565b60006040518060400160405280601c81526020017f19457468657265756d205369676e6564204d6573736167653a0a333200000000815250905060008133876040516020016200213d9392919062003e8f565b604051602081830303815290604052805190602001209050866001600160a01b03166001828787876040516000815260200160405260405162002184949392919062003ff3565b6020604051602081039080840390855afa158015620021a7573d6000803e3d6000fd5b505050602060405103516001600160a01b031614620021da5760405162461bcd60e51b815260040162000999906200420d565b50505050505050565b620021ef8282620031a7565b620011e6620031d9565b60006200221262002209620014f4565b60349062002074565b156200222c57620022246034620024a1565b90506200096a565b620022386034620024a1565b600101905090565b6200224b8162003285565b62000aee620031d9565b61019062002263826200269f565b101562000aee5760405162461bcd60e51b81526004016200099990620040ed565b437f1e4717b2dc5dfd7f487f2043bfe9999372d693bf4d9c51b5b84f1377939cd48755565b6000620022b5620014f4565b6001600160a01b0316826001600160a01b0316148062000b2a575062000b2a60348362002074565b6060600082516001600160401b0381118015620022f957600080fd5b5060405190808252806020026020018201604052801562002324578160200160208202803683370190505b50905060005b835181101562001b6357620023708482815181106200234557fe5b6020026020010151600001518583815181106200235e57fe5b60200260200101516020015162001102565b8282815181106200237d57fe5b60209081029190910101526001016200232a565b600183015460609083830210620023b857506040805160008152602081019091526200249a565b6000828385028660010180549050031115620023d6575081620023e2565b50600184015483830290035b6000816001600160401b0381118015620023fb57600080fd5b5060405190808252806020026020018201604052801562002426578160200160208202803683370190505b50905060005b828110156200249557866001018186880201815481106200244957fe5b9060005260206000200160009054906101000a90046001600160a01b03168282815181106200247457fe5b6001600160a01b03909216602092830291909101909101526001016200242c565b509150505b9392505050565b6001015490565b6060600084516001600160401b0381118015620024c457600080fd5b506040519080825280602002602001820160405280156200250257816020015b620024ee62003557565b815260200190600190039081620024e45790505b50905060005b85518110156200266c578581815181106200251f57fe5b60200260200101516001600160a01b031663e57cf3d4856040518263ffffffff1660e01b815260040162002554919062003f0e565b60206040518083038186803b1580156200256d57600080fd5b505afa15801562002582573d6000803e3d6000fd5b505050506040513d601f19601f82011682018060405250810190620025a8919062003a58565b156200266357858181518110620025bb57fe5b60200260200101516001600160a01b03166370a54bf1866040518263ffffffff1660e01b8152600401620025f091906200402a565b600060405180830381600087803b1580156200260b57600080fd5b505af115801562002620573d6000803e3d6000fd5b505050506040513d6000823e601f3d908101601f191682016040526200264a919081019062003a93565b8282815181106200265757fe5b60200260200101819052505b60010162002508565b50949350505050565b620026808162000b12565b62000aee5760405162461bcd60e51b8152600401620009999062004442565b6000620026ab620014f4565b6001600160a01b0316826001600160a01b03161415620026cf57506101f462000b2d565b506001600160a01b031660009081526036602052604090205490565b600062000f197f8bcac7b16aae006a6580ce9e5ace8f14d72825efe19990c4d6c4d25b76e86a3760001c84846040516020016200272a92919062003f00565b6040516020818303038152906040528051906020012060001c620032b5565b600062000f19836001600160a01b031683620026eb565b6001600160a01b03811660009081526020839052604090205480620027865750620011e6565b600183015481811462002812576000846001016001830381548110620027a857fe5b6000918252602090912001546001860180546001600160a01b03909216925082916000198601908110620027d857fe5b600091825260208083209190910180546001600160a01b0319166001600160a01b0394851617905592909116815290859052604090208290555b836001018054806200282057fe5b60008281526020808220830160001990810180546001600160a01b03191690559092019092556001600160a01b0385168252859052604081205550505050565b600062000f198383620026eb565b6060600082516001600160401b03811180156200288a57600080fd5b50604051908082528060200260200182016040528015620028b5578160200160208202803683370190505b50905060005b835181101562001b635762002901848281518110620028d657fe5b602002602001015160000151858381518110620028ef57fe5b60200260200101516020015162000f22565b8282815181106200290e57fe5b6020908102919091010152600101620028bb565b6200297f7f8bcac7b16aae006a6580ce9e5ace8f14d72825efe19990c4d6c4d25b76e86a3760001c84846040516020016200295f92919062003f00565b6040516020818303038152906040528051906020012060001c83620032cd565b62000dc862002284565b6060620029963362001ee9565b62000967620032e4565b3390565b600062000b2a6101f483620026eb565b60010190565b6040805160148082528183019092526060916000919060208201818036833701905050905060005b601481101562001b6357604051806060016040528060248152602001620048b26024913960246001600160a01b038616066001600160a01b03168151811062002a2757fe5b602001015160f81c60f81b82828151811062002a3f57fe5b60200101906001600160f81b031916908160001a90535060246001600160a01b038516049350600101620029e2565b6060600082516001600160401b038111801562002a8a57600080fd5b5060405190808252806020026020018201604052801562002ac857816020015b62002ab4620035b4565b81526020019060019003908162002aaa5790505b50905060005b835181101562001b6357604051806040016040528085838151811062002af057fe5b60200260200101516001600160a01b0316815260200162002b178684815181106200201757fe5b81525082828151811062002b2757fe5b602090810291909101015260010162002ace565b60606000306001600160a01b0316636bb04b866040518163ffffffff1660e01b8152600401600060405180830381600087803b15801562002b7b57600080fd5b505af115801562002b90573d6000803e3d6000fd5b505050506040513d6000823e601f3d908101601f1916820160405262002bba91908101906200390a565b9050600081516001600160401b038111801562002bd657600080fd5b5060405190808252806020026020018201604052801562002c1457816020015b62002c00620035b4565b81526020019060019003908162002bf65790505b50905060005b82518110156200206d57604051806040016040528084838151811062002c3c57fe5b60200260200101516001600160a01b0316815260200162002c638584815181106200201757fe5b81525082828151811062002c7357fe5b602090810291909101015260010162002c1a565b606062002c97620018db620014f4565b62000f196034848462002391565b303b1590565b60606000306001600160a01b0316636bb04b866040518163ffffffff1660e01b8152600401600060405180830381600087803b15801562002ceb57600080fd5b505af115801562002d00573d6000803e3d6000fd5b505050506040513d6000823e601f3d908101601f1916820160405262002d2a91908101906200390a565b9050600081516001600160401b038111801562002d4657600080fd5b5060405190808252806020026020018201604052801562002d8457816020015b62002d70620035b4565b81526020019060019003908162002d665790505b5090506000805b835181101562002e18578562002da78583815181106200201757fe5b141562002e0f57604051806040016040528085838151811062002dc657fe5b60200260200101516001600160a01b0316815260200162002ded8684815181106200201757fe5b81525083838151811062002dfd57fe5b60209081029190910101526001909101905b60010162002d8b565b5081529392505050565b62002e2c620029a0565b6033546001600160a01b0390811691161462002e7e576040805162461bcd60e51b8152602060048201819052602482015260008051602062004864833981519152604482015290519081900360640190fd5b62000aee8162003300565b6060600082516001600160401b038111801562002ea557600080fd5b5060405190808252806020026020018201604052801562002ee357816020015b62002ecf6200352d565b81526020019060019003908162002ec55790505b50905060005b835181101562001b6357604051806060016040528085838151811062002f0b57fe5b60200260200101516001600160a01b0316815260200162002f328684815181106200201757fe5b815260200162002f488684815181106200203b57fe5b81525082828151811062002f5857fe5b602090810291909101015260010162002ee9565b6060813b63ffffffff811662002f9357505060408051600081526020810190915262000b2d565b60008390506000816001600160a01b0316636bb04b866040518163ffffffff1660e01b8152600401600060405180830381600087803b15801562002fd657600080fd5b505af115801562002feb573d6000803e3d6000fd5b505050506040513d6000823e601f3d908101601f191682016040526200301591908101906200390a565b9050600081516001016001600160401b03811180156200303457600080fd5b506040519080825280602002602001820160405280156200305f578160200160208202803683370190505b5090506000836001600160a01b0316638da5cb5b6040518163ffffffff1660e01b815260040160206040518083038186803b1580156200309e57600080fd5b505afa158015620030b3573d6000803e3d6000fd5b505050506040513d601f19601f82011682018060405250810190620030d99190620037bd565b90508082600081518110620030ea57fe5b60200260200101906001600160a01b031690816001600160a01b03168152505060005b83518110156200319b57816001600160a01b03168482815181106200312e57fe5b60200260200101516001600160a01b03161415620031555783965050505050505062000b2d565b8381815181106200316257fe5b60200260200101518382600101815181106200317a57fe5b6001600160a01b03909216602092830291909101909101526001016200310d565b50909695505050505050565b620031b460348362001e8b565b6001600160a01b0382166000908152603660205260409020819055620011e662002284565b603a546103e8141580156200320157506000620031f562000aa4565b6001600160a01b031614155b1562000ad3576200321162000aa4565b6001600160a01b0316633e49fb7e620032296200134e565b306040518363ffffffff1660e01b81526004016200324992919062004048565b600060405180830381600087803b1580156200326457600080fd5b505af115801562003279573d6000803e3d6000fd5b50506103e8603a555050565b6200329260348262002760565b6001600160a01b03811660009081526036602052604081205562000aee62002284565b600062000f19620032c78484620033a3565b620033d9565b62000dc8620032dd8484620033a3565b82620033dd565b6060620032f4620018db620014f4565b620012ee6034620029b4565b6001600160a01b038116620033475760405162461bcd60e51b81526004018080602001828103825260268152602001806200483e6026913960400191505060405180910390fd5b6033546040516001600160a01b038084169216907f8be0079c531659141344cd1fd0a4f28419497f9722a3daafe3b4186f6b6457e090600090a3603380546001600160a01b0319166001600160a01b0392909216919091179055565b60008183604051602001620033ba92919062003f00565b60408051601f1981840301815291905280516020909101209392505050565b5490565b9055565b604051806101a00160405280606081526020016000815260200160608152602001600081526020016060815260200160008152602001606081526020016000815260200160006001600160a01b03168152602001600081526020016000815260200160008152602001600081525090565b61017c80620046c283390190565b828054600181600116156101000203166002900490600052602060002090601f016020900481019282620034985760008555620034e3565b82601f10620034b357805160ff1916838001178555620034e3565b82800160010185558215620034e3579182015b82811115620034e3578251825591602001919060010190620034c6565b50620034f1929150620035cb565b5090565b6040518060a0016040528060006001600160a01b03168152602001600081526020016000815260200160008152602001600081525090565b604051806060016040528060006001600160a01b0316815260200160008152602001606081525090565b60405180610100016040528060006001600160a01b0316815260200160006001600160a01b031681526020016060815260200160008152602001600081526020016060815260200160008019168152602001600080191681525090565b604080518082019091526000808252602082015290565b5b80821115620034f15760008155600101620035cc565b805162000b2d81620046ab565b600082601f83011262003600578081fd5b813560206200361962003613836200465e565b6200463a565b828152818101908583018385028701840188101562003636578586fd5b855b85811015620036615781356200364e81620046ab565b8452928401929084019060010162003638565b5090979650505050505050565b600082601f8301126200367f578081fd5b815160206200369262003613836200465e565b8281528181019085830183850287018401881015620036af578586fd5b855b8581101562003661578151620036c781620046ab565b84529284019290840190600101620036b1565b600082601f830112620036eb578081fd5b81516020620036fe62003613836200465e565b828152818101908583016040808602880185018910156200371d578687fd5b865b868110156200377e5781838b03121562003737578788fd5b81518281018181106001600160401b03821117156200375257fe5b835283516200376181620046ab565b81528387015187820152855293850193918101916001016200371f565b509198975050505050505050565b803560ff8116811462000b2d57600080fd5b600060208284031215620037b0578081fd5b81356200249a81620046ab565b600060208284031215620037cf578081fd5b81516200249a81620046ab565b60008060408385031215620037ef578081fd5b8235620037fc81620046ab565b915060208301356200380e81620046ab565b809150509250929050565b600080604083850312156200382c578182fd5b82356200383981620046ab565b946020939093013593505050565b600080600080608085870312156200385d578182fd5b84356200386a81620046ab565b966020860135965060408601359560600135945092505050565b600080600080608085870312156200389a578182fd5b8435620038a781620046ab565b9350620038b7602086016200378c565b93969395505050506040820135916060013590565b600060208284031215620038de578081fd5b81356001600160401b03811115620038f4578182fd5b6200390284828501620035ef565b949350505050565b6000602082840312156200391c578081fd5b81516001600160401b0381111562003932578182fd5b62003902848285016200366e565b6000806040838503121562003953578182fd5b82356001600160401b0381111562003969578283fd5b6200397785828601620035ef565b95602094909401359450505050565b6000602080838503121562003999578182fd5b82356001600160401b0380821115620039b0578384fd5b818501915085601f830112620039c4578384fd5b8135620039d562003613826200465e565b818152848101908486016040808502870188018b1015620039f4578889fd5b8896505b8487101562003a495780828c03121562003a10578889fd5b8051818101818110888211171562003a2457fe5b82528235815288830135898201528452600196909601959287019290810190620039f8565b50909998505050505050505050565b60006020828403121562003a6a578081fd5b815180151581146200249a578182fd5b60006020828403121562003a8c578081fd5b5035919050565b60006020828403121562003aa5578081fd5b81516001600160401b038082111562003abc578283fd5b818401915061010080838703121562003ad3578384fd5b62003ade816200463a565b905062003aeb83620035e2565b815262003afb60208401620035e2565b602082015260408301518281111562003b12578485fd5b62003b2087828601620036da565b604083015250606083015160608201526080830151608082015260a08301518281111562003b4c578485fd5b62003b5a878286016200366e565b60a08301525060c083015160c082015260e083015160e082015280935050505092915050565b60006020828403121562003b92578081fd5b5051919050565b6000806040838503121562003bac578182fd5b50508035926020909101359150565b60008060006060848603121562003bd0578081fd5b505081359360208301359350604090920135919050565b60008060006060848603121562003bfc578081fd5b62003c07846200378c565b95602085013595506040909401359392505050565b6001600160a01b03169052565b6000815180845260208085019450808401835b8381101562003c635781516001600160a01b03168752958201959082019060010162003c3c565b509495945050505050565b6000815180845260208085019450848183028601828601855b8581101562003661578383038952815180516001600160a01b03168452858101516101009062003cba8887018262003c1c565b50604080830151828288015262003cd48388018262003de6565b925050506060808301518187015250608080830151818701525060a0808301518683038288015262003d07838262003c29565b60c0858101519089015260e0948501519490970193909352505050978401979084019060010162003c87565b6000815180845260208085019450808401835b8381101562003c635762003d5c87835162003e59565b60a096909601959082019060010162003d46565b60008282518085526020808601955080818302840101818601855b848110156200366157858303601f19018952815180516001600160a01b03168452848101518585015260409081015160609185018290529062003dd18186018362003c29565b9a86019a945050509083019060010162003d8b565b6000815180845260208085019450808401835b8381101562003c6357815180516001600160a01b03168852830151838801526040909601959082019060010162003df9565b6000815180845262003e458160208601602086016200467c565b601f01601f19169290920160200192915050565b80516001600160a01b03168252602080820151908301526040808201519083015260608082015190830152608090810151910152565b6000845162003ea38184602089016200467c565b60609490941b6bffffffffffffffffffffffff191691909301908152601481019190915260340192915050565b60006564726976652d60d01b8252825162003ef38160068501602087016200467c565b9190910160060192915050565b918252602082015260400190565b6001600160a01b0391909116815260200190565b6001600160a01b0393841681529183166020830152909116604082015260600190565b60006020825262000f19602083018462003c29565b60006020825262000f19602083018462003c6e565b60006020825262000f19602083018462003d33565b60006020825262000f19602083018462003d70565b60006020825262000f19602083018462003de6565b6020808252825182820181905260009190848201906040850190845b818110156200319b5783518352928401929184019160010162003fca565b901515815260200190565b93845260ff9290921660208401526040830152606082015260800190565b6001600160a01b03929092168252602082015260400190565b90815260200190565b60006020825262000f19602083018462003e2b565b6000604082526200405d604083018562003e2b565b905060018060a01b03831660208301529392505050565b60208082526018908201527f4a6f696e20636f646520646f6573206e6f742065786973740000000000000000604082015260600190565b60208082526022908201527f43616e206f6e6c7920737761702066726f6d20706c61696e2061646472657373604082015261657360f01b606082015260800190565b60208082526024908201527f4f6e6c792041646d696e7320616e64204f776e6572732063616e2063616c6c206040820152637468697360e01b606082015260800190565b60208082526019908201527f4f6e6c792041646d696e732063616e2063616c6c207468697300000000000000604082015260600190565b60208082526013908201527210da185d08191bd95cc81b9bdd08195e1a5cdd606a1b604082015260600190565b602080825260169082015275129bda5b8818dbd919481d1a5b5948195e1c1a5c995960521b604082015260600190565b60208082526028908201527f43616e206f6e6c792075706461746520696e76697465732077697468206c6f77604082015267657220726f6c657360c01b606082015260800190565b602080825260119082015270496e76616c6964207369676e617475726560781b604082015260600190565b60208082526015908201527415185c99d95d081c9bdb19481d5b9919599a5b9959605a1b604082015260600190565b6020808252601e908201527f4f6e6c792068696768657220726f6c65732063616e2073657420746869730000604082015260600190565b60208082526024908201527f43616e206f6e6c7920737761702066726f6d206d656d626572732061646472656040820152637373657360e01b606082015260800190565b6020808252602a908201527f43616e206f6e6c79207377617020666f72206d756c746973696720736d61727460408201526920636f6e74726163747360b01b606082015260800190565b60208082526017908201527f4a6f696e20636f646520636f756e742065787069726564000000000000000000604082015260600190565b60208082526026908201527f43616e206f6e6c792075706461746520696e766974657320746f206c6f77657260408201526520726f6c657360d01b606082015260800190565b6020808252601390820152724368617420616c72656164792065786973747360681b604082015260600190565b60208082526018908201527f4a6f696e20636f646520616c7265616479206578697374730000000000000000604082015260600190565b6020808252818101527f4f6e6c79206f776e6572732063616e20736574206f776e65722076616c756573604082015260600190565b6020808252601a908201527f4f6e6c79206d656d626572732063616e2063616c6c2074686973000000000000604082015260600190565b60208082526019908201527f4f6e6c79204f776e6572732063616e2063616c6c207468697300000000000000604082015260600190565b60208082526026908201527f43616e206f6e6c792063726561746520696e766974657320746f206c6f77657260408201526520726f6c657360d01b606082015260800190565b6020808252601c908201527f4f6e6c792061646d696e732063616e2072656d6f766520636861747300000000604082015260600190565b60a0810162000f1c828462003e59565b60006020825282516101a08060208501526200455e6101c085018362003d70565b9150602085015160408501526040850151601f198086850301606087015262004588848362003c6e565b93506060870151608087015260808701519150808685030160a0870152620045b1848362003d33565b935060a087015160c087015260c08701519150808685030160e087015250620045db838262003e2b565b92505060e0850151610100818187015280870151915050610120620046038187018362003c1c565b8601516101408681019190915286015161016080870191909152860151610180808701919091529095015193019290925250919050565b6040518181016001600160401b03811182821017156200465657fe5b604052919050565b60006001600160401b038211156200467257fe5b5060209081020190565b60005b83811015620046995781810151838201526020016200467f565b8381111562000ebf5750506000910152565b6001600160a01b038116811462000aee57600080fdfe60c060405234801561001057600080fd5b5060405161017c38038061017c8339818101604052604081101561003357600080fd5b5080516020909101516080819052606082901b6001600160601b03191660a052906001600160a01b0316610104610078600039806041525080601252506101046000f3fe60806040819052635c23bdf560e01b81527f00000000000000000000000000000000000000000000000000000000000000006084526000906001600160a01b037f00000000000000000000000000000000000000000000000000000000000000001690635c23bdf59060a49060209060248186803b158015607f57600080fd5b505afa1580156092573d6000803e3d6000fd5b505050506040513d602081101560a757600080fd5b505190503660008037600080366000845af43d6000803e80801560c9573d6000f35b600080fdfea264697066735822122007fe6e097a600da06ac966c6642ed12c684ad027adc1251fb781e72709c4f62d64736f6c634300070600334f776e61626c653a206e6577206f776e657220697320746865207a65726f20616464726573734f776e61626c653a2063616c6c6572206973206e6f7420746865206f776e6572436f6e747261637420696e7374616e63652068617320616c7265616479206265656e20696e697469616c697a6564303132333435363738396162636465666768696a6b6c6d6e6f707172737475767778797aa2646970667358221220fc2c73837d071d60bbe8339a909601ce11a45c8c5b73be57aec532cbea3fe17564736f6c6343000706003360806040523480156200001157600080fd5b506200001d3362000023565b62000315565b600054610100900460ff16806200003f57506200003f62000112565b806200004e575060005460ff16155b6200008b5760405162461bcd60e51b815260040180806020018281038252602e81526020018062002f0b602e913960400191505060405180910390fd5b600054610100900460ff16158015620000b7576000805460ff1961ff0019909116610100171660011790555b620000c162000118565b620000d7826200013d60201b62000ffc1760201c565b620000fb620000e562000230565b60346200023f60201b620010e71790919060201c565b80156200010e576000805461ff00191690555b5050565b303b1590565b437f1e4717b2dc5dfd7f487f2043bfe9999372d693bf4d9c51b5b84f1377939cd48755565b600054610100900460ff16806200015957506200015962000112565b8062000168575060005460ff16155b620001a55760405162461bcd60e51b815260040180806020018281038252602e81526020018062002f0b602e913960400191505060405180910390fd5b600054610100900460ff16158015620001d1576000805460ff1961ff0019909116610100171660011790555b603380546001600160a01b0319166001600160a01b0384169081179091556040516000907f8be0079c531659141344cd1fd0a4f28419497f9722a3daafe3b4186f6b6457e0908290a380156200010e576000805461ff00191690555050565b6033546001600160a01b031690565b6200024b82826200029d565b1562000257576200010e565b6001828101805491820181556000818152602080822090930180546001600160a01b0319166001600160a01b039590951694851790559054928152929052604090912055565b6001600160a01b038116600090815260208390526040812054801580620002c75750600184015481115b15620002d85760009150506200030f565b826001600160a01b0316846001016001830381548110620002f557fe5b6000918252602090912001546001600160a01b0316149150505b92915050565b612be680620003256000396000f3fe608060405234801561001057600080fd5b50600436106102535760003560e01c806386fc4f3711610146578063c0c53b8b116100c3578063e83037d811610087578063e83037d8146104d5578063f2fde38b146104e8578063f3599788146104fb578063fdc860771461050e578063ff32263214610516578063ff7620441461052957610253565b8063c0c53b8b14610476578063c4d66de814610489578063d4322d7d1461049c578063df899ff9146104af578063e57cf3d4146104c257610253565b8063999d34f51161010a578063999d34f5146104385780639ce8aad71461044b578063b67e215514610453578063bb62860d14610466578063c02475ff1461046e57610253565b806386fc4f37146103d55780638c79ca5d146103ea5780638da5cb5b146103fd5780639224deae1461040557806395348bf41461042557610253565b80635dfb075d116101d4578063715018a611610198578063715018a61461038c5780637225c6dc146103945780637693a3e9146103a75780637ec518e5146103ba57806382e2ab5b146103c257610253565b80635dfb075d146103295780636b2a2d951461033c5780636bb04b861461034f5780636e47512d1461036457806370a54bf11461036c57610253565b8063264560d61161021b578063264560d6146102bd57806336aa88fb146102d05780634ed6472a146102f0578063534fc35f146103035780635b8161a41461031657610253565b80630a6b802314610258578063106f6dfc14610276578063176891e41461028b578063189ac691146102a05780631a2323d9146102aa575b600080fd5b61026061053e565b60405161026d919061274b565b60405180910390f35b61027e610557565b60405161026d919061281b565b610293610564565b60405161026d919061270d565b6102a8610577565b005b6102a86102b8366004612341565b610582565b61027e6102cb366004612341565b61059a565b6102e36102de366004612517565b6105b6565b60405161026d91906127e3565b6102936102fe3660046123c3565b6105ca565b61029361031136600461262e565b6105e8565b61029361032436600461262e565b6105fd565b6102e3610337366004612517565b610612565b6102a861034a36600461262e565b610626565b61035761063e565b60405161026d9190612738565b610293610651565b61037f61037a366004612616565b610688565b60405161026d9190612a33565b6102a861082d565b6102936103a2366004612616565b6108cf565b6102a86103b5366004612341565b6108e3565b6102936108f5565b6102a86103d0366004612341565b61092c565b6103dd610956565b60405161026d9190612724565b6102a86103f83660046123c3565b610969565b6103dd6109cb565b6104186104133660046123ee565b6109da565b60405161026d91906127d0565b6103dd610433366004612616565b6109ee565b6102a8610446366004612341565b610a11565b610418610b6e565b61035761046136600461262e565b610b81565b610293610b96565b610293610c10565b6102a8610484366004612379565b610c35565b6102a8610497366004612341565b610d37565b6102936104aa366004612341565b610dfd565b6102a86104bd36600461264f565b610e11565b61027e6104d0366004612341565b610e49565b6104186104e3366004612616565b610ecc565b6102a86104f6366004612341565b610ee0565b6102a861050936600461262e565b610f67565b610357610fa3565b6102606105243660046123ee565b610fc5565b610531610fd9565b60405161026d9190612826565b606061054933611141565b610551611146565b90505b90565b60006105516034336112b8565b600061056f33611141565b61055161132a565b61058033611367565b565b61058b33611393565b6105978161012c6113bd565b50565b60006105a533611141565b6105ae826113eb565b90505b919050565b60606105c133611141565b6105ae8261141a565b60006105d533611141565b6105df83836114cc565b90505b92915050565b60006105f333611141565b6105df83836114dd565b600061060833611141565b6105df8383611537565b606061061d33611141565b6105ae82611543565b61062f336115ee565b61063a338383611613565b5050565b606061064933611141565b610551611674565b600061065c33611141565b6105516101907f1b036544434cea9770a413fd03e0fb240e1ccbd10a452f7dba85c8eca9ca3eda6114dd565b6106906122a3565b600061069a6116e9565b90506001600160a01b03811615806106ba5750336001600160a01b038216145b806106ce575060006106cb33611714565b10155b156107755760006106e3610413600086610b81565b9050604051806101000160405280306001600160a01b031681526020016107086109cb565b6001600160a01b03168152602001828152602001610726603461175c565b8152602001610733610c10565b815260200161074f600080516020612b43833981519152611763565b815260200161075c610651565b81526020016107696108f5565b815250925050506105b1565b604080516101008101825230815260006020808301829052835182815290810184529192830191906107bd565b6107aa612300565b8152602001906001900390816107a25790505b508152602001600081526020016000815260200160006001600160401b03811180156107e857600080fd5b50604051908082528060200260200182016040528015610812578160200160208202803683370190505b50815260006020820181905260409091015291506105b19050565b610835611800565b6033546001600160a01b03908116911614610885576040805162461bcd60e51b81526020600482018190526024820152600080516020612b63833981519152604482015290519081900360640190fd5b6033546040516000916001600160a01b0316907f8be0079c531659141344cd1fd0a4f28419497f9722a3daafe3b4186f6b6457e0908390a3603380546001600160a01b0319169055565b60006108da33611141565b6105ae82611804565b6108ec33611393565b61059781611367565b600061090033611141565b6105516101907f1596dc38e2ac5a6ddc5e019af4adcc1e017a04f510d57e69d6879d5d2996bb8e6114dd565b61093533611393565b610597600080516020612b438339815191526001600160a01b038316611812565b600061096133611141565b6105516116e9565b610971611800565b6033546001600160a01b039081169116146109c1576040805162461bcd60e51b81526020600482018190526024820152600080516020612b63833981519152604482015290519081900360640190fd5b61063a82826113bd565b6033546001600160a01b031690565b60606109e533611141565b6105ae82611837565b60006109f933611141565b6105ae600080516020612b43833981519152836118f9565b610190610a1c6116e9565b6001600160a01b031663d4322d7d336040518263ffffffff1660e01b8152600401610a479190612724565b60206040518083038186803b158015610a5f57600080fd5b505afa158015610a73573d6000803e3d6000fd5b505050506040513d601f19601f82011682018060405250810190610a9791906125fe565b1015610abe5760405162461bcd60e51b8152600401610ab5906128f4565b60405180910390fd5b610ac66116e9565b6001600160a01b031663264560d6610adc6109cb565b6040518263ffffffff1660e01b8152600401610af89190612724565b60206040518083038186803b158015610b1057600080fd5b505afa158015610b24573d6000803e3d6000fd5b505050506040513d601f19601f82011682018060405250810190610b4891906125de565b15610b655760405162461bcd60e51b8152600401610ab5906129f0565b6105978161190d565b6060610b7933611141565b6105516119ae565b6060610b8c33611141565b6105df8383611aeb565b6000610ba06116e9565b6001600160a01b031663bb62860d6040518163ffffffff1660e01b815260040160206040518083038186803b158015610bd857600080fd5b505afa158015610bec573d6000803e3d6000fd5b505050506040513d601f19601f8201168201806040525081019061055191906125fe565b7f1e4717b2dc5dfd7f487f2043bfe9999372d693bf4d9c51b5b84f1377939cd4875490565b600054610100900460ff1680610c4e5750610c4e611b04565b80610c5c575060005460ff16155b610c975760405162461bcd60e51b815260040180806020018281038252602e815260200180612b83602e913960400191505060405180910390fd5b600054610100900460ff16158015610cc2576000805460ff1961ff0019909116610100171660011790555b610cf57fc18c621db5e0a8e619a4ceaafd717f6351f0161edbd89ed2e016e4bbb1ec34f06001600160a01b038516611b0a565b610d16600080516020612b438339815191526001600160a01b038416611812565b610d1f84610d37565b8015610d31576000805461ff00191690555b50505050565b600054610100900460ff1680610d505750610d50611b04565b80610d5e575060005460ff16155b610d995760405162461bcd60e51b815260040180806020018281038252602e815260200180612b83602e913960400191505060405180910390fd5b600054610100900460ff16158015610dc4576000805460ff1961ff0019909116610100171660011790555b610dcc611b0e565b610dd582610ffc565b610de8610de06109cb565b6034906110e7565b801561063a576000805461ff00191690555050565b6000610e0833611141565b6105ae82611714565b82610e1b33611714565b1015610e395760405162461bcd60e51b8152600401610ab5906128bd565b610e44838383611613565b505050565b6000610e536116e9565b6001600160a01b0316336001600160a01b03161480610e7b57506000610e7833611714565b10155b610e975760405162461bcd60e51b8152600401610ab59061293a565b610e9f6116e9565b6001600160a01b0316826001600160a01b031614806105ae57506000610ec483611714565b101592915050565b6060610ed733611141565b6105ae82611b33565b610ee8611800565b6033546001600160a01b03908116911614610f38576040805162461bcd60e51b81526020600482018190526024820152600080516020612b63833981519152604482015290519081900360640190fd5b610f4b610f436109cb565b6101906113bd565b610f5481611c98565b610597610f5f6109cb565b6101f46113bd565b33610f706109cb565b6001600160a01b031614610f965760405162461bcd60e51b8152600401610ab590612984565b61063a6101f48383611613565b6060610fae33611141565b610551600080516020612b43833981519152611763565b6060610fd033611141565b6105ae82611cf0565b60408051808201909152600981526804368617447726f75760bc1b602082015290565b600054610100900460ff16806110155750611015611b04565b80611023575060005460ff16155b61105e5760405162461bcd60e51b815260040180806020018281038252602e815260200180612b83602e913960400191505060405180910390fd5b600054610100900460ff16158015611089576000805460ff1961ff0019909116610100171660011790555b603380546001600160a01b0319166001600160a01b0384169081179091556040516000907f8be0079c531659141344cd1fd0a4f28419497f9722a3daafe3b4186f6b6457e0908290a3801561063a576000805461ff00191690555050565b6110f182826112b8565b156110fb5761063a565b6001828101805491820181556000818152602080822090930180546001600160a01b0319166001600160a01b039590951694851790559054928152929052604090912055565b610597565b60606000306001600160a01b0316636bb04b866040518163ffffffff1660e01b8152600401600060405180830381600087803b15801561118557600080fd5b505af1158015611199573d6000803e3d6000fd5b505050506040513d6000823e601f3d908101601f191682016040526111c1919081019061248b565b9050600081516001600160401b03811180156111dc57600080fd5b5060405190808252806020026020018201604052801561121657816020015b611203612317565b8152602001906001900390816111fb5790505b50905060005b82518110156112b157604051806060016040528084838151811061123c57fe5b60200260200101516001600160a01b0316815260200161126e85848151811061126157fe5b6020026020010151611714565b815260200161128f85848151811061128257fe5b6020026020010151611dc6565b81525082828151811061129e57fe5b602090810291909101015260010161121c565b5091505090565b6001600160a01b0381166000908152602083905260408120548015806112e15750600184015481115b156112f05760009150506105e2565b826001600160a01b031684600101600183038154811061130c57fe5b6000918252602090912001546001600160a01b031614949350505050565b600061133f6113376109cb565b6034906112b8565b156113555761134e603461175c565b9050610554565b61135f603461175c565b600101905090565b611372603482611fed565b6001600160a01b038116600090815260366020526040812055610597611b0e565b61019061139f82611714565b10156105975760405162461bcd60e51b8152600401610ab590612879565b6113c86034836110e7565b6001600160a01b038216600090815260366020526040902081905561063a611b0e565b60006113f56109cb565b6001600160a01b0316826001600160a01b031614806105ae57506105ae6034836112b8565b6060600082516001600160401b038111801561143557600080fd5b5060405190808252806020026020018201604052801561145f578160200160208202803683370190505b50905060005b83518110156114c5576114a684828151811061147d57fe5b60200260200101516000015185838151811061149557fe5b6020026020010151602001516105fd565b8282815181106114b257fe5b6020908102919091010152600101611465565b5092915050565b60006105df836001600160a01b0316835b60006105df7f8bcac7b16aae006a6580ce9e5ace8f14d72825efe19990c4d6c4d25b76e86a3760001c8484604051602001611519929190612716565b6040516020818303038152906040528051906020012060001c6120e7565b60006105df83836114dd565b6060600082516001600160401b038111801561155e57600080fd5b50604051908082528060200260200182016040528015611588578160200160208202803683370190505b50905060005b83518110156114c5576115cf8482815181106115a657fe5b6020026020010151600001518583815181106115be57fe5b6020026020010151602001516105e8565b8282815181106115db57fe5b602090810291909101015260010161158e565b6115f78161059a565b6105975760405162461bcd60e51b8152600401610ab5906129b9565b61166c7f8bcac7b16aae006a6580ce9e5ace8f14d72825efe19990c4d6c4d25b76e86a3760001c848460405160200161164d929190612716565b6040516020818303038152906040528051906020012060001c836120f6565b610e44611b0e565b6060611681610de06109cb565b61168b6034612109565b8054806020026020016040519081016040528092919081815260200182805480156116df57602002820191906000526020600020905b81546001600160a01b031681526001909101906020018083116116c1575b5050505050905090565b60006105517fc18c621db5e0a8e619a4ceaafd717f6351f0161edbd89ed2e016e4bbb1ec34f061210f565b600061171e6109cb565b6001600160a01b0316826001600160a01b0316141561174057506101f46105b1565b506001600160a01b031660009081526036602052604090205490565b6001015490565b6060600061177083612113565b90506000816001600160401b038111801561178a57600080fd5b506040519080825280602002602001820160405280156117b4578160200160208202803683370190505b50905060005b828110156117f8576117cc85826118f9565b8282815181106117d857fe5b6001600160a01b03909216602092830291909101909101526001016117ba565b509392505050565b3390565b60006105ae6101f4836114dd565b600061181d83612113565b905061182a83828461211e565b610e44838260010161212b565b6060600082516001600160401b038111801561185257600080fd5b5060405190808252806020026020018201604052801561188c57816020015b611879612300565b8152602001906001900390816118715790505b50905060005b83518110156114c55760405180604001604052808583815181106118b257fe5b60200260200101516001600160a01b031681526020016118d786848151811061126157fe5b8152508282815181106118e657fe5b6020908102919091010152600101611892565b60006105df6119088484612135565b61210f565b6001600160a01b0381166119525760405162461bcd60e51b8152600401808060200182810382526026815260200180612b1d6026913960400191505060405180910390fd5b6033546040516001600160a01b038084169216907f8be0079c531659141344cd1fd0a4f28419497f9722a3daafe3b4186f6b6457e090600090a3603380546001600160a01b0319166001600160a01b0392909216919091179055565b60606000306001600160a01b0316636bb04b866040518163ffffffff1660e01b8152600401600060405180830381600087803b1580156119ed57600080fd5b505af1158015611a01573d6000803e3d6000fd5b505050506040513d6000823e601f3d908101601f19168201604052611a29919081019061248b565b9050600081516001600160401b0381118015611a4457600080fd5b50604051908082528060200260200182016040528015611a7e57816020015b611a6b612300565b815260200190600190039081611a635790505b50905060005b82518110156112b1576040518060400160405280848381518110611aa457fe5b60200260200101516001600160a01b03168152602001611ac985848151811061126157fe5b815250828281518110611ad857fe5b6020908102919091010152600101611a84565b6060611af8610de06109cb565b6105df60348484612169565b303b1590565b9055565b437f1e4717b2dc5dfd7f487f2043bfe9999372d693bf4d9c51b5b84f1377939cd48755565b60606000306001600160a01b0316636bb04b866040518163ffffffff1660e01b8152600401600060405180830381600087803b158015611b7257600080fd5b505af1158015611b86573d6000803e3d6000fd5b505050506040513d6000823e601f3d908101601f19168201604052611bae919081019061248b565b9050600081516001600160401b0381118015611bc957600080fd5b50604051908082528060200260200182016040528015611c0357816020015b611bf0612300565b815260200190600190039081611be85790505b5090506000805b8351811015611c8e5785611c2385838151811061126157fe5b1415611c86576040518060400160405280858381518110611c4057fe5b60200260200101516001600160a01b03168152602001611c6586848151811061126157fe5b815250838381518110611c7457fe5b60209081029190910101526001909101905b600101611c0a565b5081529392505050565b611ca0611800565b6033546001600160a01b03908116911614610b65576040805162461bcd60e51b81526020600482018190526024820152600080516020612b63833981519152604482015290519081900360640190fd5b6060600082516001600160401b0381118015611d0b57600080fd5b50604051908082528060200260200182016040528015611d4557816020015b611d32612317565b815260200190600190039081611d2a5790505b50905060005b83518110156114c5576040518060600160405280858381518110611d6b57fe5b60200260200101516001600160a01b03168152602001611d9086848151811061126157fe5b8152602001611da486848151811061128257fe5b815250828281518110611db357fe5b6020908102919091010152600101611d4b565b6060813b63ffffffff8116611deb5750506040805160008152602081019091526105b1565b60008390506000816001600160a01b0316636bb04b866040518163ffffffff1660e01b8152600401600060405180830381600087803b158015611e2d57600080fd5b505af1158015611e41573d6000803e3d6000fd5b505050506040513d6000823e601f3d908101601f19168201604052611e69919081019061248b565b9050600081516001016001600160401b0381118015611e8757600080fd5b50604051908082528060200260200182016040528015611eb1578160200160208202803683370190505b5090506000836001600160a01b0316638da5cb5b6040518163ffffffff1660e01b815260040160206040518083038186803b158015611eef57600080fd5b505afa158015611f03573d6000803e3d6000fd5b505050506040513d601f19601f82011682018060405250810190611f27919061235d565b90508082600081518110611f3757fe5b60200260200101906001600160a01b031690816001600160a01b03168152505060005b8351811015611fe157816001600160a01b0316848281518110611f7957fe5b60200260200101516001600160a01b03161415611f9e578396505050505050506105b1565b838181518110611faa57fe5b6020026020010151838260010181518110611fc157fe5b6001600160a01b0390921660209283029190910190910152600101611f5a565b50909695505050505050565b6001600160a01b03811660009081526020839052604090205480612011575061063a565b600183015481811461209a57600084600101600183038154811061203157fe5b6000918252602090912001546001860180546001600160a01b0390921692508291600019860190811061206057fe5b600091825260208083209190910180546001600160a01b0319166001600160a01b0394851617905592909116815290859052604090208290555b836001018054806120a757fe5b60008281526020808220830160001990810180546001600160a01b03191690559092019092556001600160a01b0385168252859052604081205550505050565b60006105df611908848461226f565b610e44612103848461226f565b82611b0a565b60010190565b5490565b60006105ae8261210f565b610e446121038484612135565b61063a8282611b0a565b60008183604051602001612149919061270d565b60408051601f198184030181529190528051602090910120019392505050565b60018301546060908383021061218e5750604080516000815260208101909152612268565b60008283850286600101805490500311156121aa5750816121b6565b50600184015483830290035b6000816001600160401b03811180156121ce57600080fd5b506040519080825280602002602001820160405280156121f8578160200160208202803683370190505b50905060005b82811015612263578660010181868802018154811061221957fe5b9060005260206000200160009054906101000a90046001600160a01b031682828151811061224357fe5b6001600160a01b03909216602092830291909101909101526001016121fe565b509150505b9392505050565b60008183604051602001612284929190612716565b60408051601f1981840301815291905280516020909101209392505050565b60405180610100016040528060006001600160a01b0316815260200160006001600160a01b031681526020016060815260200160008152602001600081526020016060815260200160008019168152602001600080191681525090565b604080518082019091526000808252602082015290565b604051806060016040528060006001600160a01b0316815260200160008152602001606081525090565b600060208284031215612352578081fd5b813561226881612b07565b60006020828403121561236e578081fd5b815161226881612b07565b60008060006060848603121561238d578182fd5b833561239881612b07565b925060208401356123a881612b07565b915060408401356123b881612b07565b809150509250925092565b600080604083850312156123d5578182fd5b82356123e081612b07565b946020939093013593505050565b60006020808385031215612400578182fd5b82356001600160401b03811115612415578283fd5b8301601f81018513612425578283fd5b803561243861243382612aea565b612ac7565b8181528381019083850185840285018601891015612454578687fd5b8694505b8385101561247f57803561246b81612b07565b835260019490940193918501918501612458565b50979650505050505050565b6000602080838503121561249d578182fd5b82516001600160401b038111156124b2578283fd5b8301601f810185136124c2578283fd5b80516124d061243382612aea565b81815283810190838501858402850186018910156124ec578687fd5b8694505b8385101561247f57805161250381612b07565b8352600194909401939185019185016124f0565b60006020808385031215612529578182fd5b82356001600160401b038082111561253f578384fd5b818501915085601f830112612552578384fd5b813561256061243382612aea565b818152848101908486016040808502870188018b101561257e578889fd5b8896505b848710156125cf5780828c031215612598578889fd5b805181810181811088821117156125ab57fe5b82528235815288830135898201528452600196909601959287019290810190612582565b50909998505050505050505050565b6000602082840312156125ef578081fd5b81518015158114612268578182fd5b60006020828403121561260f578081fd5b5051919050565b600060208284031215612627578081fd5b5035919050565b60008060408385031215612640578182fd5b50508035926020909101359150565b600080600060608486031215612663578081fd5b505081359360208301359350604090920135919050565b6001600160a01b03169052565b6000815180845260208085019450808401835b838110156126bf5781516001600160a01b03168752958201959082019060010161269a565b509495945050505050565b6000815180845260208085019450808401835b838110156126bf57815180516001600160a01b0316885283015183880152604090960195908201906001016126dd565b90815260200190565b918252602082015260400190565b6001600160a01b0391909116815260200190565b6000602082526105df6020830184612687565b60208082528251828201819052600091906040908185019080840286018301878501865b838110156127c257888303603f19018552815180516001600160a01b03168452878101518885015286015160608785018190526127ae81860183612687565b96890196945050509086019060010161276f565b509098975050505050505050565b6000602082526105df60208301846126ca565b6020808252825182820181905260009190848201906040850190845b81811015611fe1578351835292840192918401916001016127ff565b901515815260200190565b6000602080835283518082850152825b8181101561285257858101830151858201604001528201612836565b818111156128635783604083870101525b50601f01601f1916929092016040019392505050565b60208082526024908201527f4f6e6c792041646d696e7320616e64204f776e6572732063616e2063616c6c206040820152637468697360e01b606082015260800190565b6020808252601e908201527f4f6e6c792068696768657220726f6c65732063616e2073657420746869730000604082015260600190565b60208082526026908201527f4f6e6c79207a6f6e652061646d696e732063616e20656c6563742061206e65776040820152651037bbb732b960d11b606082015260800190565b6020808252602a908201527f4f6e6c79206d656d6265727320616e64207a6f6e652061646d696e732063616e6040820152692063616c6c207468697360b01b606082015260800190565b6020808252818101527f4f6e6c79206f776e6572732063616e20736574206f776e65722076616c756573604082015260600190565b6020808252601a908201527f4f6e6c79206d656d626572732063616e2063616c6c2074686973000000000000604082015260600190565b60208082526023908201527f4f6e6c792064656c65746564206f776e6572732063616e206265207265706c6160408201526218d95960ea1b606082015260800190565b602080825282516001600160a01b031682820152820151600090612a5a604084018261267a565b506040830151610100806060850152612a776101208501836126ca565b915060608501516080850152608085015160a085015260a0850151601f198584030160c0860152612aa88382612687565b60c087015160e087810191909152909601519190940152509192915050565b6040518181016001600160401b0381118282101715612ae257fe5b604052919050565b60006001600160401b03821115612afd57fe5b5060209081020190565b6001600160a01b038116811461059757600080fdfe4f776e61626c653a206e6577206f776e657220697320746865207a65726f206164647265737308018b4288d5db32d2995b3f859d926c04045933821282f17f8b242cedfcc4b04f776e61626c653a2063616c6c6572206973206e6f7420746865206f776e6572436f6e747261637420696e7374616e63652068617320616c7265616479206265656e20696e697469616c697a6564a2646970667358221220a30ba399357833c5884db86a15e76dcd98be1f2483523bc43e11dc193c931e0764736f6c63430007060033436f6e747261637420696e7374616e63652068617320616c7265616479206265656e20696e697469616c697a6564436f6e747261637420696e7374616e63652068617320616c7265616479206265656e20696e697469616c697a6564","linkReferences":{}},"methodIdentifiers":{"AddBackup(address)":"a816b4aa","AddChat(address,address)":"387b64bf","AddJoinCode(address,uint256,uint256,uint256)":"a05f1f2c","AddMember(address)":"1a2323d9","AddMember(address,uint256)":"8c79ca5d","AddReader(address)":"e3ccbfbd","AddWhitelist(address)":"e463fa6b","Chat(address)":"f3b7cb15","ChatPolicy()":"41d41686","Chats()":"782dafd2","ChatsInfoAggregateV1(address[],uint256)":"c86bc063","ChatsPage(uint256,uint256)":"852352ae","DataValue(uint256,uint256)":"534fc35f","DataValues((uint256,uint256)[])":"5dfb075d","IsMember()":"106f6dfc","IsMember(address)":"264560d6","IsSubZone()":"d8700ef5","Join(address,uint8,bytes32,bytes32)":"0ca4c2c1","Join(uint8,bytes32,bytes32)":"6405475a","JoinCode(address)":"aa34cd5d","JoinCodes()":"ec67db1f","JoinCodesInfo(address[])":"eee63a58","JoinCodesPage(uint256,uint256)":"b67677b8","MemberCount()":"176891e4","MemberRoles()":"9ce8aad7","MemberRoles(address[])":"9224deae","MemberValue(address,uint256)":"4ed6472a","MemberWithRole(uint256)":"e83037d8","Members()":"6bb04b86","Members(uint256,uint256)":"b67e2155","MembersExtended()":"0a6b8023","MembersExtended(address[])":"ff322632","Migrate()":"207aba24","Name()":"8052474d","Nonce()":"f8e08389","OwnerValue(uint256)":"7225c6dc","Password()":"ff0bcdfe","RemoveChat(address)":"539ca83f","RemoveMember(address)":"7693a3e9","RemoveSelf()":"189ac691","RemoveWhitelist(address)":"a6667e18","Role(address)":"d4322d7d","RoleValue(uint256,uint256)":"5b8161a4","RoleValues((uint256,uint256)[])":"36aa88fb","SetMemberValue(uint256,uint256)":"6b2a2d95","SetOwnerValue(uint256,uint256)":"f3599788","SetPasswordPublic(address)":"9db8f68f","SetRoleValue(uint256,uint256,uint256)":"df899ff9","StatusAggregateV1(uint256)":"3731a9e2","Swap(address)":"39fded47","Type()":"ff762044","UpdateJoinCode(address,uint256,uint256,uint256)":"ef28f015","Version()":"bb62860d","Whitelist()":"9ebf6d92","ZoneAvailabilityCanister()":"cd93da4d","bns()":"1867e2f5","change_tracker()":"c02475ff","initialize(address)":"c4d66de8","owner()":"8da5cb5b","renounceOwnership()":"715018a6","resolve(bytes32)":"5c23bdf5","transferOwnership(address)":"f2fde38b"},"id":6}