{"abi":[{"type":"constructor","inputs":[],"stateMutability":"nonpayable"},{"type":"function","name":"AddDrive","inputs":[{"name":"_drive","type":"address","internalType":"address"}],"outputs":[],"stateMutability":"nonpayable"},{"type":"function","name":"AddMember","inputs":[{"name":"_member","type":"address","internalType":"address"}],"outputs":[],"stateMutability":"nonpayable"},{"type":"function","name":"AddWhitelist","inputs":[{"name":"_reader","type":"address","internalType":"address"}],"outputs":[],"stateMutability":"nonpayable"},{"type":"function","name":"DOMAIN_SEPARATOR","inputs":[],"outputs":[{"name":"","type":"bytes32","internalType":"bytes32"}],"stateMutability":"view"},{"type":"function","name":"DataValue","inputs":[{"name":"class","type":"uint256","internalType":"uint256"},{"name":"key","type":"uint256","internalType":"uint256"}],"outputs":[{"name":"","type":"uint256","internalType":"uint256"}],"stateMutability":"view"},{"type":"function","name":"DataValues","inputs":[{"name":"_keys","type":"tuple[]","internalType":"struct Group.DataKey[]","components":[{"name":"class","type":"uint256","internalType":"uint256"},{"name":"key","type":"uint256","internalType":"uint256"}]}],"outputs":[{"name":"","type":"uint256[]","internalType":"uint256[]"}],"stateMutability":"view"},{"type":"function","name":"Destroy","inputs":[],"outputs":[],"stateMutability":"nonpayable"},{"type":"function","name":"Drive","inputs":[],"outputs":[{"name":"","type":"address","internalType":"address"}],"stateMutability":"view"},{"type":"function","name":"Drives","inputs":[],"outputs":[{"name":"","type":"address[]","internalType":"address[]"}],"stateMutability":"view"},{"type":"function","name":"FactoryUpgrade","inputs":[{"name":"_salt","type":"bytes32","internalType":"bytes32"},{"name":"_target","type":"address","internalType":"address"},{"name":"v","type":"uint8","internalType":"uint8"},{"name":"nonce","type":"uint256","internalType":"uint256"},{"name":"deadline","type":"uint256","internalType":"uint256"},{"name":"r","type":"bytes32","internalType":"bytes32"},{"name":"s","type":"bytes32","internalType":"bytes32"}],"outputs":[],"stateMutability":"nonpayable"},{"type":"function","name":"IsMember","inputs":[],"outputs":[{"name":"","type":"bool","internalType":"bool"}],"stateMutability":"view"},{"type":"function","name":"IsMember","inputs":[{"name":"_member","type":"address","internalType":"address"}],"outputs":[{"name":"","type":"bool","internalType":"bool"}],"stateMutability":"view"},{"type":"function","name":"MemberCount","inputs":[],"outputs":[{"name":"","type":"uint256","internalType":"uint256"}],"stateMutability":"view"},{"type":"function","name":"MemberValue","inputs":[{"name":"member","type":"address","internalType":"address"},{"name":"key","type":"uint256","internalType":"uint256"}],"outputs":[{"name":"","type":"uint256","internalType":"uint256"}],"stateMutability":"view"},{"type":"function","name":"Members","inputs":[],"outputs":[{"name":"","type":"address[]","internalType":"address[]"}],"stateMutability":"nonpayable"},{"type":"function","name":"Members","inputs":[{"name":"page","type":"uint256","internalType":"uint256"},{"name":"pageSize","type":"uint256","internalType":"uint256"}],"outputs":[{"name":"","type":"address[]","internalType":"address[]"}],"stateMutability":"nonpayable"},{"type":"function","name":"Nonce","inputs":[{"name":"sender","type":"address","internalType":"address"}],"outputs":[{"name":"","type":"uint256","internalType":"uint256"}],"stateMutability":"view"},{"type":"function","name":"OwnerValue","inputs":[{"name":"key","type":"uint256","internalType":"uint256"}],"outputs":[{"name":"","type":"uint256","internalType":"uint256"}],"stateMutability":"view"},{"type":"function","name":"Protect","inputs":[{"name":"_protect","type":"bool","internalType":"bool"}],"outputs":[],"stateMutability":"nonpayable"},{"type":"function","name":"RemoveDrive","inputs":[{"name":"_drive","type":"address","internalType":"address"}],"outputs":[],"stateMutability":"nonpayable"},{"type":"function","name":"RemoveMember","inputs":[{"name":"_member","type":"address","internalType":"address"}],"outputs":[],"stateMutability":"nonpayable"},{"type":"function","name":"RemoveWhitelist","inputs":[{"name":"_reader","type":"address","internalType":"address"}],"outputs":[],"stateMutability":"nonpayable"},{"type":"function","name":"SetDrive","inputs":[{"name":"_drive","type":"address","internalType":"address"}],"outputs":[],"stateMutability":"nonpayable"},{"type":"function","name":"SetMemberValue","inputs":[{"name":"key","type":"uint256","internalType":"uint256"},{"name":"value","type":"uint256","internalType":"uint256"}],"outputs":[],"stateMutability":"nonpayable"},{"type":"function","name":"SetOwnerValue","inputs":[{"name":"key","type":"uint256","internalType":"uint256"},{"name":"value","type":"uint256","internalType":"uint256"}],"outputs":[],"stateMutability":"nonpayable"},{"type":"function","name":"SubmitCall","inputs":[{"name":"destination","type":"address","internalType":"address"},{"name":"data","type":"bytes","internalType":"bytes"}],"outputs":[],"stateMutability":"payable"},{"type":"function","name":"SubmitDriveTransaction","inputs":[{"name":"data","type":"bytes","internalType":"bytes"}],"outputs":[],"stateMutability":"nonpayable"},{"type":"function","name":"SubmitMetaTransaction","inputs":[{"name":"nonce","type":"uint256","internalType":"uint256"},{"name":"deadline","type":"uint256","internalType":"uint256"},{"name":"dst","type":"address","internalType":"address"},{"name":"data","type":"bytes","internalType":"bytes"},{"name":"v","type":"uint8","internalType":"uint8"},{"name":"r","type":"bytes32","internalType":"bytes32"},{"name":"s","type":"bytes32","internalType":"bytes32"}],"outputs":[],"stateMutability":"nonpayable"},{"type":"function","name":"SubmitTransaction","inputs":[{"name":"dst","type":"address","internalType":"address"},{"name":"data","type":"bytes","internalType":"bytes"}],"outputs":[],"stateMutability":"nonpayable"},{"type":"function","name":"TransactionDigest","inputs":[{"name":"nonce","type":"uint256","internalType":"uint256"},{"name":"deadline","type":"uint256","internalType":"uint256"},{"name":"dst","type":"address","internalType":"address"},{"name":"data","type":"bytes","internalType":"bytes"}],"outputs":[{"name":"","type":"bytes32","internalType":"bytes32"}],"stateMutability":"view"},{"type":"function","name":"Type","inputs":[],"outputs":[{"name":"","type":"string","internalType":"string"}],"stateMutability":"pure"},{"type":"function","name":"Version","inputs":[],"outputs":[{"name":"","type":"int256","internalType":"int256"}],"stateMutability":"pure"},{"type":"function","name":"Whitelist","inputs":[],"outputs":[{"name":"","type":"address[]","internalType":"address[]"}],"stateMutability":"view"},{"type":"function","name":"change_tracker","inputs":[],"outputs":[{"name":"","type":"uint256","internalType":"uint256"}],"stateMutability":"view"},{"type":"function","name":"initialize","inputs":[{"name":"arg_owner","type":"address","internalType":"address payable"}],"outputs":[],"stateMutability":"nonpayable"},{"type":"function","name":"owner","inputs":[],"outputs":[{"name":"","type":"address","internalType":"address payable"}],"stateMutability":"view"},{"type":"function","name":"renounceOwnership","inputs":[],"outputs":[],"stateMutability":"nonpayable"},{"type":"function","name":"transferOwnership","inputs":[{"name":"newOwner","type":"address","internalType":"address payable"}],"outputs":[],"stateMutability":"nonpayable"},{"type":"event","name":"OwnershipTransferred","inputs":[{"name":"previousOwner","type":"address","indexed":true,"internalType":"address"},{"name":"newOwner","type":"address","indexed":true,"internalType":"address"}],"anonymous":false}],"bytecode":{"object":"0x60806040523480156200001157600080fd5b506200001d3362000038565b620000283362000038565b6200003262000127565b6200032a565b600054610100900460ff1680620000545750620000546200014c565b8062000063575060005460ff16155b620000a05760405162461bcd60e51b815260040180806020018281038252602e81526020018062002669602e913960400191505060405180910390fd5b600054610100900460ff16158015620000cc576000805460ff1961ff0019909116610100171660011790555b620000d662000127565b620000ec826200015260201b620012b21760201c565b62000110620000fa62000245565b60346200025460201b6200139d1790919060201c565b801562000123576000805461ff00191690555b5050565b437f1e4717b2dc5dfd7f487f2043bfe9999372d693bf4d9c51b5b84f1377939cd48755565b303b1590565b600054610100900460ff16806200016e57506200016e6200014c565b806200017d575060005460ff16155b620001ba5760405162461bcd60e51b815260040180806020018281038252602e81526020018062002669602e913960400191505060405180910390fd5b600054610100900460ff16158015620001e6576000805460ff1961ff0019909116610100171660011790555b603380546001600160a01b0319166001600160a01b0384169081179091556040516000907f8be0079c531659141344cd1fd0a4f28419497f9722a3daafe3b4186f6b6457e0908290a3801562000123576000805461ff00191690555050565b6033546001600160a01b031690565b620002608282620002b2565b156200026c5762000123565b6001828101805491820181556000818152602080822090930180546001600160a01b0319166001600160a01b039590951694851790559054928152929052604090912055565b6001600160a01b038116600090815260208390526040812054801580620002dc5750600184015481115b15620002ed57600091505062000324565b826001600160a01b03168460010160018303815481106200030a57fe5b6000918252602090912001546001600160a01b0316149150505b92915050565b61232f806200033a6000396000f3fe6080604052600436106102255760003560e01c80637693a3e911610123578063c4d66de8116100ab578063f2fde38b1161006f578063f2fde38b14610610578063f359978814610630578063f57b330a14610650578063f58fef8e14610670578063ff7620441461068557610225565b8063c4d66de81461057b578063ce689d111461059b578063d425ccf7146105b0578063dfedde26146105d0578063e463fa6b146105f057610225565b8063a6667e18116100f2578063a6667e18146104fc578063b67e21551461051c578063b7a0d4f01461053c578063bb62860d14610551578063c02475ff1461056657610225565b80637693a3e9146104855780638da5cb5b146104a55780638dace67c146104c75780639ebf6d92146104e757610225565b80634cf16022116101b15780636b2a2d95116101755780636b2a2d95146103ee5780636bb04b861461040e5780636d3c0c3514610430578063715018a6146104505780637225c6dc1461046557610225565b80634cf160221461034e5780634ed6472a1461036e578063534fc35f1461038e5780635dfb075d146103ae57806369f35e3b146103db57610225565b80631a2323d9116101f85780631a2323d9146102b95780631f0dc2b4146102d9578063264560d6146102f957806330d0cee9146103195780633644e5151461033957610225565b8063106f6dfc1461022a578063130dbfbb14610255578063172a330f14610277578063176891e414610297575b600080fd5b34801561023657600080fd5b5061023f6106a7565b60405161024c9190611f5a565b60405180910390f35b34801561026157600080fd5b50610275610270366004611b8b565b6106ba565b005b34801561028357600080fd5b50610275610292366004611b53565b6106f8565b3480156102a357600080fd5b506102ac61072c565b60405161024c9190611f65565b3480156102c557600080fd5b506102756102d4366004611b53565b610769565b3480156102e557600080fd5b506102756102f4366004611cf7565b610785565b34801561030557600080fd5b5061023f610314366004611b53565b610a10565b34801561032557600080fd5b506102ac610334366004611b53565b610a45565b34801561034557600080fd5b506102ac610a6c565b34801561035a57600080fd5b50610275610369366004611d59565b610b06565b34801561037a57600080fd5b506102ac610389366004611bd9565b610b49565b34801561039a57600080fd5b506102ac6103a9366004611dac565b610b67565b3480156103ba57600080fd5b506103ce6103c9366004611c04565b610bc1565b60405161024c9190611f22565b6102756103e9366004611b8b565b610c74565b3480156103fa57600080fd5b50610275610409366004611dac565b610ca0565b34801561041a57600080fd5b50610423610cb4565b60405161024c9190611ed5565b34801561043c57600080fd5b506102ac61044b366004611dcd565b610cbe565b34801561045c57600080fd5b50610275610d2f565b34801561047157600080fd5b506102ac610480366004611d94565b610de3565b34801561049157600080fd5b506102756104a0366004611b53565b610df1565b3480156104b157600080fd5b506104ba610e05565b60405161024c9190611ec1565b3480156104d357600080fd5b506102756104e2366004611e2e565b610e14565b3480156104f357600080fd5b50610423610f51565b34801561050857600080fd5b50610275610517366004611b53565b610fc4565b34801561052857600080fd5b50610423610537366004611dac565b610fd8565b34801561054857600080fd5b50610423610ff9565b34801561055d57600080fd5b506102ac61100e565b34801561057257600080fd5b506102ac611013565b34801561058757600080fd5b50610275610596366004611b53565b611038565b3480156105a757600080fd5b506104ba6110f6565b3480156105bc57600080fd5b506102756105cb366004611b53565b611116565b3480156105dc57600080fd5b506102756105eb366004611cd7565b61112a565b3480156105fc57600080fd5b5061027561060b366004611b53565b611149565b34801561061c57600080fd5b5061027561062b366004611b53565b61115d565b34801561063c57600080fd5b5061027561064b366004611dac565b6111d0565b34801561065c57600080fd5b5061027561066b366004611b53565b61120c565b34801561067c57600080fd5b50610275611220565b34801561069157600080fd5b5061069a61128d565b60405161024c9190611ffb565b60006106b46034336113f7565b90505b90565b6106c333611469565b6106cf828251836114ec565b6106f45760405162461bcd60e51b81526004016106eb9061212a565b60405180910390fd5b5050565b61070133611469565b60368054610100600160a81b0319166101006001600160a01b0384160217905561072961150d565b50565b6000610741610739610e05565b6034906113f7565b15610757576107506034611532565b90506106b7565b6107616034611532565b600101905090565b61077233611469565b61077d60348261139d565b61072961150d565b600061078f611539565b90506001600160a01b0381166107b75760405162461bcd60e51b81526004016106eb90612189565b604051634be8762160e11b815230906001600160a01b038316906397d0ec42906107e5908c90600401611f65565b60206040518083038186803b1580156107fd57600080fd5b505afa158015610811573d6000803e3d6000fd5b505050506040513d601f19601f820116820180604052508101906108359190611b6f565b6001600160a01b03161461085b5760405162461bcd60e51b81526004016106eb90612104565b60006108888686848b6040516020016108749190611ec1565b604051602081830303815290604052610cbe565b90506000600182898787604051600081526020016040526040516108af9493929190611fb1565b6020604051602081039080840390855afa1580156108d1573d6000803e3d6000fd5b5050604051601f1901519150506001600160a01b0381166109045760405162461bcd60e51b81526004016106eb906120d9565b6001600160a01b0381166000908152603b6020526040902054871461093b5760405162461bcd60e51b81526004016106eb9061204e565b6001600160a01b0381166000908152603b6020526040902080546001019055610962610e05565b6001600160a01b0316816001600160a01b0316146109925760405162461bcd60e51b81526004016106eb90612161565b61099b3061155e565b6040516302d388f360e61b81526001600160a01b0384169063b4e23cc0906109c9908d908d90600401611f6e565b600060405180830381600087803b1580156109e357600080fd5b505af11580156109f7573d6000803e3d6000fd5b50505050610a048161155e565b50505050505050505050565b6000816001600160a01b0316610a24610e05565b6001600160a01b03161480610a3d5750610a3d826115ff565b90505b919050565b6000610a50336114c2565b506001600160a01b03166000908152603b602052604090205490565b6040516000904690610aea907f8b73c3c69bb8fe3d512ecc4cf759cc79239f7b179b0ffacaa9a75d522b39400f907f77bd4e5ae9674ade2e5818d3fab5db72a5bc60ff9c0d0fe55ffc71cabaa7951f907f06cc276dcbd36fa8a4ad61c60dbe1da479204cba66678327f4ef9514652342029085903090602001611fcf565b6040516020818303038152906040528051906020012091505090565b610b0f33611469565b6036548151610b2d9161010090046001600160a01b031690836114ec565b6107295760405162461bcd60e51b81526004016106eb90612075565b6000610b5e836001600160a01b031683610b67565b90505b92915050565b6000610b5e7f8bcac7b16aae006a6580ce9e5ace8f14d72825efe19990c4d6c4d25b76e86a3760001c8484604051602001610ba3929190611eb3565b6040516020818303038152906040528051906020012060001c61162e565b60606000825167ffffffffffffffff81118015610bdd57600080fd5b50604051908082528060200260200182016040528015610c07578160200160208202803683370190505b50905060005b8351811015610c6d57610c4e848281518110610c2557fe5b602002602001015160000151858381518110610c3d57fe5b602002602001015160200151610b67565b828281518110610c5a57fe5b6020908102919091010152600101610c0d565b5092915050565b610c7d33611469565b80513460208301600080848385895af190503d6000803e808015610225573d6000f35b610ca933611469565b6106f4338383611642565b60606106b46116a8565b6000610d26610ccb610a6c565b7ffc70f199e7d3e6e60d4eb7c7fb1b770d2ea240ad25026bfb77ca295880d95f548787878780519060200120604051602001610d0b959493929190611f85565b604051602081830303815290604052805190602001206116bf565b95945050505050565b610d376116de565b6033546001600160a01b03908116911614610d99576040805162461bcd60e51b815260206004820181905260248201527f4f776e61626c653a2063616c6c6572206973206e6f7420746865206f776e6572604482015290519081900360640190fd5b6033546040516000916001600160a01b0316907f8be0079c531659141344cd1fd0a4f28419497f9722a3daafe3b4186f6b6457e0908390a3603380546001600160a01b0319169055565b6000610a3d6101f483610b67565b610dfa33611469565b61077d6034826116e2565b6033546001600160a01b031690565b854210610e335760405162461bcd60e51b81526004016106eb906120ac565b6000610e4188888888610cbe565b9050600060018286868660405160008152602001604052604051610e689493929190611fb1565b6020604051602081039080840390855afa158015610e8a573d6000803e3d6000fd5b5050604051601f1901519150506001600160a01b038116610ebd5760405162461bcd60e51b81526004016106eb906120d9565b610ec681611469565b6001600160a01b0381166000908152603b60205260409020548914610efd5760405162461bcd60e51b81526004016106eb9061204e565b6001600160a01b0381166000908152603b60205260409020805460010190558551610f2a908890886114ec565b610f465760405162461bcd60e51b81526004016106eb9061212a565b505050505050505050565b6060610f5c336114c2565b610f6660396117dc565b805480602002602001604051908101604052809291908181526020018280548015610fba57602002820191906000526020600020905b81546001600160a01b03168152600190910190602001808311610f9c575b5050505050905090565b610fcd33611469565b61077d6039826116e2565b6060610fed610fe5610e05565b60349061139d565b610b5e603484846117e2565b6060611004336114c2565b610f6660376106b7565b607b90565b7f1e4717b2dc5dfd7f487f2043bfe9999372d693bf4d9c51b5b84f1377939cd4875490565b600054610100900460ff168061105157506110516118e7565b8061105f575060005460ff16155b61109a5760405162461bcd60e51b815260040180806020018281038252602e8152602001806122cc602e913960400191505060405180910390fd5b600054610100900460ff161580156110c5576000805460ff1961ff0019909116610100171660011790555b6110cd61150d565b6110d6826112b2565b6110e1610fe5610e05565b80156106f4576000805461ff00191690555050565b6000611101336114c2565b5060365461010090046001600160a01b031690565b61111f33611469565b61077d6037826118ed565b61113333611469565b6036805460ff191682151517905561072961150d565b61115233611469565b61077d60398261139d565b6111656116de565b6033546001600160a01b039081169116146111c7576040805162461bcd60e51b815260206004820181905260248201527f4f776e61626c653a2063616c6c6572206973206e6f7420746865206f776e6572604482015290519081900360640190fd5b6107298161155e565b336111d9610e05565b6001600160a01b0316146111ff5760405162461bcd60e51b81526004016106eb906121b2565b6106f46101f48383611642565b61121533611469565b61077d6037826119e8565b6112286116de565b6033546001600160a01b0390811691161461128a576040805162461bcd60e51b815260206004820181905260248201527f4f776e61626c653a2063616c6c6572206973206e6f7420746865206f776e6572604482015290519081900360640190fd5b33ff5b60408051808201909152600b81526a223934bb32a6b2b6b132b960a91b602082015290565b600054610100900460ff16806112cb57506112cb6118e7565b806112d9575060005460ff16155b6113145760405162461bcd60e51b815260040180806020018281038252602e8152602001806122cc602e913960400191505060405180910390fd5b600054610100900460ff1615801561133f576000805460ff1961ff0019909116610100171660011790555b603380546001600160a01b0319166001600160a01b0384169081179091556040516000907f8be0079c531659141344cd1fd0a4f28419497f9722a3daafe3b4186f6b6457e0908290a380156106f4576000805461ff00191690555050565b6113a782826113f7565b156113b1576106f4565b6001828101805491820181556000818152602080822090930180546001600160a01b0319166001600160a01b039590951694851790559054928152929052604090912055565b6001600160a01b0381166000908152602083905260408120548015806114205750600184015481115b1561142f576000915050610b61565b826001600160a01b031684600101600183038154811061144b57fe5b6000918252602090912001546001600160a01b031614949350505050565b6001600160a01b03811630141561147f57610729565b60365460ff16156114c757806001600160a01b031661149c610e05565b6001600160a01b0316146114c25760405162461bcd60e51b81526004016106eb9061221e565b610729565b6114d081610a10565b6107295760405162461bcd60e51b81526004016106eb906121e7565b60008060405160208401600082878360008b5af193505050505b9392505050565b437f1e4717b2dc5dfd7f487f2043bfe9999372d693bf4d9c51b5b84f1377939cd48755565b6001015490565b7fb53127684a568b3173ae13b9f8a6016e243e63b6e8ee1178d6a717850b5d61035490565b6001600160a01b0381166115a35760405162461bcd60e51b81526004018080602001828103825260268152602001806122a66026913960400191505060405180910390fd5b6033546040516001600160a01b038084169216907f8be0079c531659141344cd1fd0a4f28419497f9722a3daafe3b4186f6b6457e090600090a3603380546001600160a01b0319166001600160a01b0392909216919091179055565b6000611609610e05565b6001600160a01b0316826001600160a01b03161480610a3d5750610a3d6034836113f7565b6000610b5e61163d8484611a93565b611ac7565b61169b7f8bcac7b16aae006a6580ce9e5ace8f14d72825efe19990c4d6c4d25b76e86a3760001c848460405160200161167c929190611eb3565b6040516020818303038152906040528051906020012060001c83611acb565b6116a361150d565b505050565b60606116b5610fe5610e05565b610f6660346117dc565b60405161190160f01b8152600281019290925260228201526042902090565b3390565b6001600160a01b0381166000908152602083905260409020548061170657506106f4565b600183015481811461178f57600084600101600183038154811061172657fe5b6000918252602090912001546001860180546001600160a01b0390921692508291600019860190811061175557fe5b600091825260208083209190910180546001600160a01b0319166001600160a01b0394851617905592909116815290859052604090208290555b8360010180548061179c57fe5b60008281526020808220830160001990810180546001600160a01b03191690559092019092556001600160a01b0385168252859052604081205550505050565b60010190565b6001830154606090838302106118075750604080516000815260208101909152611506565b600082838502866001018054905003111561182357508161182f565b50600184015483830290035b60008167ffffffffffffffff8111801561184857600080fd5b50604051908082528060200260200182016040528015611872578160200160208202803683370190505b50905060005b828110156118dd578660010181868802018154811061189357fe5b9060005260206000200160009054906101000a90046001600160a01b03168282815181106118bd57fe5b6001600160a01b0390921660209283029190910190910152600101611878565b5095945050505050565b303b1590565b6001600160a01b03811660009081526001830160205260409020548061191357506106f4565b825481811461199a57600084600001600183038154811061193057fe5b60009182526020909120015485546001600160a01b03909116915081908690600019860190811061195d57fe5b600091825260208083209190910180546001600160a01b0319166001600160a01b0394851617905592909116815260018601909152604090208290555b83548490806119a557fe5b60008281526020808220830160001990810180546001600160a01b03191690559092019092556001600160a01b0385168252600186019052604081205550505050565b6119f28282611a40565b156119fc576106f4565b8154600180820184556000848152602080822090930180546001600160a01b0319166001600160a01b03959095169485179055845493815293019052604090912055565b6001600160a01b0381166000908152600183016020526040812054801580611a685750835481115b15611a77576000915050610b61565b826001600160a01b031684600001600183038154811061144b57fe5b60008183604051602001611aa8929190611eb3565b60408051601f1981840301815291905280516020909101209392505050565b5490565b6116a3611ad88484611a93565b829055565b600082601f830112611aed578081fd5b813567ffffffffffffffff811115611b0157fe5b611b14601f8201601f191660200161226c565b818152846020838601011115611b28578283fd5b816020850160208301379081016020019190915292915050565b803560ff81168114610a4057600080fd5b600060208284031215611b64578081fd5b813561150681612290565b600060208284031215611b80578081fd5b815161150681612290565b60008060408385031215611b9d578081fd5b8235611ba881612290565b9150602083013567ffffffffffffffff811115611bc3578182fd5b611bcf85828601611add565b9150509250929050565b60008060408385031215611beb578182fd5b8235611bf681612290565b946020939093013593505050565b60006020808385031215611c16578182fd5b823567ffffffffffffffff80821115611c2d578384fd5b818501915085601f830112611c40578384fd5b813581811115611c4c57fe5b611c59848583020161226c565b818152848101908486016040808502870188018b1015611c77578889fd5b8896505b84871015611cc85780828c031215611c91578889fd5b80518181018181108882111715611ca457fe5b82528235815288830135898201528452600196909601959287019290810190611c7b565b50909998505050505050505050565b600060208284031215611ce8578081fd5b81358015158114611506578182fd5b600080600080600080600060e0888a031215611d11578283fd5b873596506020880135611d2381612290565b9550611d3160408901611b42565b969995985095966060810135965060808101359560a0820135955060c0909101359350915050565b600060208284031215611d6a578081fd5b813567ffffffffffffffff811115611d80578182fd5b611d8c84828501611add565b949350505050565b600060208284031215611da5578081fd5b5035919050565b60008060408385031215611dbe578182fd5b50508035926020909101359150565b60008060008060808587031215611de2578384fd5b84359350602085013592506040850135611dfb81612290565b9150606085013567ffffffffffffffff811115611e16578182fd5b611e2287828801611add565b91505092959194509250565b600080600080600080600060e0888a031215611e48578081fd5b87359650602088013595506040880135611e6181612290565b9450606088013567ffffffffffffffff811115611e7c578182fd5b611e888a828b01611add565b945050611e9760808901611b42565b925060a0880135915060c0880135905092959891949750929550565b918252602082015260400190565b6001600160a01b0391909116815260200190565b6020808252825182820181905260009190848201906040850190845b81811015611f165783516001600160a01b031683529284019291840191600101611ef1565b50909695505050505050565b6020808252825182820181905260009190848201906040850190845b81811015611f1657835183529284019291840191600101611f3e565b901515815260200190565b90815260200190565b9182526001600160a01b0316602082015260400190565b948552602085019390935260408401919091526001600160a01b03166060830152608082015260a00190565b93845260ff9290921660208401526040830152606082015260800190565b9485526020850193909352604084019190915260608301526001600160a01b0316608082015260a00190565b6000602080835283518082850152825b818110156120275785810183015185820160400152820161200b565b818111156120385783604083870101525b50601f01601f1916929092016040019392505050565b6020808252600d908201526c496e76616c6964206e6f6e636560981b604082015260600190565b60208082526018908201527f4472697665205472616e73616374696f6e206661696c65640000000000000000604082015260600190565b602080825260139082015272151c985b9cd858dd1a5bdb88195e1c1a5c9959606a1b604082015260600190565b602080825260119082015270496e76616c6964207369676e617475726560781b604082015260600190565b6020808252600c908201526b125b9d985b1a59081cd85b1d60a21b604082015260600190565b6020808252601a908201527f47656e6572616c205472616e73616374696f6e206661696c6564000000000000604082015260600190565b6020808252600e908201526d24b73b30b634b21039b4b3b732b960911b604082015260600190565b6020808252600f908201526e496e76616c696420666163746f727960881b604082015260600190565b6020808252818101527f4f6e6c79206f776e6572732063616e20736574206f776e65722076616c756573604082015260600190565b6020808252601a908201527f4f6e6c79206d656d626572732063616e2063616c6c2074686973000000000000604082015260600190565b6020808252602e908201527f4f6e6c7920746865206f776e65722063616e2063616c6c207468697320696e2060408201526d70726f746563746564206d6f646560901b606082015260800190565b60405181810167ffffffffffffffff8111828210171561228857fe5b604052919050565b6001600160a01b038116811461072957600080fdfe4f776e61626c653a206e6577206f776e657220697320746865207a65726f2061646472657373436f6e747261637420696e7374616e63652068617320616c7265616479206265656e20696e697469616c697a6564a2646970667358221220288f544c47ef8bffdb19afa340a3d1c9e131670fccf6a865767e615daa094a0e64736f6c63430007060033436f6e747261637420696e7374616e63652068617320616c7265616479206265656e20696e697469616c697a6564","linkReferences":{}},"methodIdentifiers":{"AddDrive(address)":"f57b330a","AddMember(address)":"1a2323d9","AddWhitelist(address)":"e463fa6b","DOMAIN_SEPARATOR()":"3644e515","DataValue(uint256,uint256)":"534fc35f","DataValues((uint256,uint256)[])":"5dfb075d","Destroy()":"f58fef8e","Drive()":"ce689d11","Drives()":"b7a0d4f0","FactoryUpgrade(bytes32,address,uint8,uint256,uint256,bytes32,bytes32)":"1f0dc2b4","IsMember()":"106f6dfc","IsMember(address)":"264560d6","MemberCount()":"176891e4","MemberValue(address,uint256)":"4ed6472a","Members()":"6bb04b86","Members(uint256,uint256)":"b67e2155","Nonce(address)":"30d0cee9","OwnerValue(uint256)":"7225c6dc","Protect(bool)":"dfedde26","RemoveDrive(address)":"d425ccf7","RemoveMember(address)":"7693a3e9","RemoveWhitelist(address)":"a6667e18","SetDrive(address)":"172a330f","SetMemberValue(uint256,uint256)":"6b2a2d95","SetOwnerValue(uint256,uint256)":"f3599788","SubmitCall(address,bytes)":"69f35e3b","SubmitDriveTransaction(bytes)":"4cf16022","SubmitMetaTransaction(uint256,uint256,address,bytes,uint8,bytes32,bytes32)":"8dace67c","SubmitTransaction(address,bytes)":"130dbfbb","TransactionDigest(uint256,uint256,address,bytes)":"6d3c0c35","Type()":"ff762044","Version()":"bb62860d","Whitelist()":"9ebf6d92","change_tracker()":"c02475ff","initialize(address)":"c4d66de8","owner()":"8da5cb5b","renounceOwnership()":"715018a6","transferOwnership(address)":"f2fde38b"},"id":9}